{
    "contractName": "CompanyTemplate",
    "abi": [
        {
            "inputs": [
                {
                    "name": "_daoFactory",
                    "type": "address"
                },
                {
                    "name": "_ens",
                    "type": "address"
                },
                {
                    "name": "_miniMeFactory",
                    "type": "address"
                },
                {
                    "name": "_aragonID",
                    "type": "address"
                }
            ],
            "payable": false,
            "stateMutability": "nonpayable",
            "type": "constructor"
        },
        {
            "anonymous": false,
            "inputs": [
                {
                    "indexed": false,
                    "name": "dao",
                    "type": "address"
                }
            ],
            "name": "DeployDao",
            "type": "event"
        },
        {
            "anonymous": false,
            "inputs": [
                {
                    "indexed": false,
                    "name": "dao",
                    "type": "address"
                }
            ],
            "name": "SetupDao",
            "type": "event"
        },
        {
            "anonymous": false,
            "inputs": [
                {
                    "indexed": false,
                    "name": "token",
                    "type": "address"
                }
            ],
            "name": "DeployToken",
            "type": "event"
        },
        {
            "anonymous": false,
            "inputs": [
                {
                    "indexed": false,
                    "name": "appProxy",
                    "type": "address"
                },
                {
                    "indexed": false,
                    "name": "appId",
                    "type": "bytes32"
                }
            ],
            "name": "InstalledApp",
            "type": "event"
        },
        {
            "constant": false,
            "inputs": [
                {
                    "name": "_tokenName",
                    "type": "string"
                },
                {
                    "name": "_tokenSymbol",
                    "type": "string"
                },
                {
                    "name": "_id",
                    "type": "string"
                },
                {
                    "name": "_holders",
                    "type": "address[]"
                },
                {
                    "name": "_stakes",
                    "type": "uint256[]"
                },
                {
                    "name": "_votingSettings",
                    "type": "uint64[3]"
                },
                {
                    "name": "_financePeriod",
                    "type": "uint64"
                },
                {
                    "name": "_useAgentAsVault",
                    "type": "bool"
                }
            ],
            "name": "newTokenAndInstance",
            "outputs": [],
            "payable": false,
            "stateMutability": "nonpayable",
            "type": "function"
        },
        {
            "constant": false,
            "inputs": [
                {
                    "name": "_name",
                    "type": "string"
                },
                {
                    "name": "_symbol",
                    "type": "string"
                }
            ],
            "name": "newToken",
            "outputs": [
                {
                    "name": "",
                    "type": "address"
                }
            ],
            "payable": false,
            "stateMutability": "nonpayable",
            "type": "function"
        },
        {
            "constant": false,
            "inputs": [
                {
                    "name": "_id",
                    "type": "string"
                },
                {
                    "name": "_holders",
                    "type": "address[]"
                },
                {
                    "name": "_stakes",
                    "type": "uint256[]"
                },
                {
                    "name": "_votingSettings",
                    "type": "uint64[3]"
                },
                {
                    "name": "_financePeriod",
                    "type": "uint64"
                },
                {
                    "name": "_useAgentAsVault",
                    "type": "bool"
                }
            ],
            "name": "newInstance",
            "outputs": [],
            "payable": false,
            "stateMutability": "nonpayable",
            "type": "function"
        },
        {
            "constant": false,
            "inputs": [
                {
                    "name": "_id",
                    "type": "string"
                },
                {
                    "name": "_holders",
                    "type": "address[]"
                },
                {
                    "name": "_stakes",
                    "type": "uint256[]"
                },
                {
                    "name": "_votingSettings",
                    "type": "uint64[3]"
                },
                {
                    "name": "_financePeriod",
                    "type": "uint64"
                },
                {
                    "name": "_useAgentAsVault",
                    "type": "bool"
                },
                {
                    "name": "_payrollSettings",
                    "type": "uint256[4]"
                }
            ],
            "name": "newInstance",
            "outputs": [],
            "payable": false,
            "stateMutability": "nonpayable",
            "type": "function"
        }
    ],
    "bytecode": "0x60806040523480156200001157600080fd5b5060405160808062004363833981016040908152815160208301519183015160609093015190929083838383620000518364010000000062000261810204565b60408051808201909152601981527f54454d504c4154455f454e535f4e4f545f434f4e54524143540000000000000060208201529015156200012e576040517f08c379a00000000000000000000000000000000000000000000000000000000081526004018080602001828103825283818151815260200191508051906020019080838360005b83811015620000f2578181015183820152602001620000d8565b50505050905090810190601f168015620001205780820380516001836020036101000a031916815260200191505b509250505060405180910390fd5b50620001438464010000000062000261810204565b60408051808201909152601d81527f54454d504c4154455f44414f5f4641435f4e4f545f434f4e54524143540000006020820152901515620001e3576040517f08c379a000000000000000000000000000000000000000000000000000000000815260040180806020018281038252838181518152602001915080519060200190808383600083811015620000f2578181015183820152602001620000d8565b5060008054600160a060020a0319908116600160a060020a03958616179091556003805482169285169290921790915560018054821694841694909417909355600280549093169116179055620002438164010000000062000290810204565b620002578264010000000062000348810204565b50505050620003fe565b600080600160a060020a03831615156200027f57600091506200028a565b823b90506000811191505b50919050565b620002a48164010000000062000261810204565b60408051808201909152601f81527f54454d504c4154455f415241474f4e5f49445f4e4f545f434f4e545241435400602082015290151562000344576040517f08c379a000000000000000000000000000000000000000000000000000000000815260040180806020018281038252838181518152602001915080519060200190808383600083811015620000f2578181015183820152602001620000d8565b5050565b6200035c8164010000000062000261810204565b6040805190810160405280602081526020017f54454d504c4154455f4d494e494d455f4641435f4e4f545f434f4e545241435481525090151562000344576040517f08c379a000000000000000000000000000000000000000000000000000000000815260040180806020018281038252838181518152602001915080519060200190808383600083811015620000f2578181015183820152602001620000d8565b613f55806200040e6000396000f3006080604052600436106100615763ffffffff7c01000000000000000000000000000000000000000000000000000000006000350416630eb8e51981146100665780634629ffea1461016a578063885b48e71461022a578063e2234b4914610290575b600080fd5b34801561007257600080fd5b506040805160206004803580820135601f8101849004840285018401909552848452610168943694929360249392840191908190840183828082843750506040805187358901803560208181028481018201909552818452989b9a998901989297509082019550935083925085019084908082843750506040805187358901803560208181028481018201909552818452989b9a9989019892975090820195509350839250850190849080828437505060408051606081810190925295989796818101969550935060039250849150839080828437509396505067ffffffffffffffff84351694505050506020013515156103c2565b005b34801561017657600080fd5b506040805160206004803580820135601f810184900484028501840190955284845261020194369492936024939284019190819084018382808284375050604080516020601f89358b018035918201839004830284018301909452808352979a9998810197919650918201945092508291508401838280828437509497506104269650505050505050565b6040805173ffffffffffffffffffffffffffffffffffffffff9092168252519081900360200190f35b34801561023657600080fd5b50610168602460048035828101929082013591813580830192908201359160443580830192908201359160643580830192908201359160843591820191013560a467ffffffffffffffff6101043516610124351515610448565b34801561029c57600080fd5b506040805160206004803580820135601f8101849004840285018401909552848452610168943694929360249392840191908190840183828082843750506040805187358901803560208181028481018201909552818452989b9a998901989297509082019550935083925085019084908082843750506040805187358901803560208181028481018201909552818452989b9a9989019892975090820195509350839250850190849080828437505060408051606081810190925295989796818101969550935060039250849150839080828437505060408051608080820183529598873567ffffffffffffffff16986020890135151598919790965060c0820195509193509091019060049083908390808284375093965061057695505050505050565b6000806000806103d18a6105e9565b6103dc8989896106c9565b6103e4610845565b935093506103f784848b8b8b8b8b610a6d565b91509150610406838383610b13565b6104108482610c57565b61041a8a85610c62565b50505050505050505050565b60008061043584846012610ee4565b90506104418133611186565b9392505050565b6104b48d8d8080601f0160208091040260200160405190810160405280939291908181526020018383808284378201915050505050508c8c8080601f01602080910402602001604051908101604052809392919081815260200183838082843750610426945050505050565b5061056789898080601f0160208091040260200160405190810160405280939291908181526020018383808284375050604080516020808f0282810182019093528e82529095508e94508d93508392508501908490808284375050604080516020808e0282810182019093528d82529095508d94508c9350839250850190849080828437505060408051606081810190925294508b935060039250849150839080828437820191505050505086866103c2565b50505050505050505050505050565b6000806000806105858b6105e9565b6105918a8a8a886111db565b610599610845565b935093506105ac84848c8c8c8c8c610a6d565b915091506105bd8484848489611222565b6105c8838383610b13565b6105d28482610c57565b6105dc8b85610c62565b5050505050505050505050565b805160408051808201909152601381527f54454d504c4154455f494e56414c49445f4944000000000000000000000000006020820152906000106106c5576040517f08c379a00000000000000000000000000000000000000000000000000000000081526004018080602001828103825283818151815260200191508051906020019080838360005b8381101561068a578181015183820152602001610672565b50505050905090810190601f1680156106b75780820380516001836020036101000a031916815260200191505b509250505060405180910390fd5b5050565b825160408051808201909152601581527f434f4d50414e595f454d5054595f484f4c444552530000000000000000000000602082015290600010610769576040517f08c379a00000000000000000000000000000000000000000000000000000000081526004018080602001828103825283818151815260200191508051906020019080838360008381101561068a578181015183820152602001610672565b508151835160408051808201909152601e81527f434f4d50414e595f4241445f484f4c444552535f5354414b45535f4c454e00006020820152911461080a576040517f08c379a00000000000000000000000000000000000000000000000000000000081526004018080602001828103825283818151815260200191508051906020019080838360008381101561068a578181015183820152602001610672565b5060408051808201909152601981527f434f4d50414e595f4241445f564f54455f53455454494e475300000000000000602082015250505050565b600154604080517f216874440000000000000000000000000000000000000000000000000000000081523060048201529051600092839273ffffffffffffffffffffffffffffffffffffffff9091169163216874449160248082019260209290919082900301818787803b1580156108bc57600080fd5b505af11580156108d0573d6000803e3d6000fd5b505050506040513d60208110156108e657600080fd5b50516040805173ffffffffffffffffffffffffffffffffffffffff8316815290519193507f0b13a9ab90735191cd544fd95ba68d1385144561cbdeb8acb8035de9a86432f5919081900360200190a18173ffffffffffffffffffffffffffffffffffffffff1663de2873596040518163ffffffff167c0100000000000000000000000000000000000000000000000000000000028152600401602060405180830381600087803b15801561099957600080fd5b505af11580156109ad573d6000803e3d6000fd5b505050506040513d60208110156109c357600080fd5b5051604080517f8ea8dc9d0000000000000000000000000000000000000000000000000000000081529051919250610a69918391859173ffffffffffffffffffffffffffffffffffffffff831691638ea8dc9d9160048083019260209291908290030181600087803b158015610a3857600080fd5b505af1158015610a4c573d6000803e3d6000fd5b505050506040513d6020811015610a6257600080fd5b505161128b565b9091565b6000806000806000806000610a8133611313565b945087610a9657610a918e611434565b610a9f565b610a9f8e6114b9565b9350610ac68e8567ffffffffffffffff8c1615610abc578b610ac1565b62278d005b6115f0565b9250610ad68e86600160006116b5565b9150610ae38e868c611839565b9050610af18d838e8e61185f565b610aff8d858386868d611a66565b919d919c50909a5050505050505050505050565b8273ffffffffffffffffffffffffffffffffffffffff1663afd925df82848573ffffffffffffffffffffffffffffffffffffffff16630842ace46040518163ffffffff167c0100000000000000000000000000000000000000000000000000000000028152600401602060405180830381600087803b158015610b9557600080fd5b505af1158015610ba9573d6000803e3d6000fd5b505050506040513d6020811015610bbf57600080fd5b5051604080517c010000000000000000000000000000000000000000000000000000000063ffffffff871602815273ffffffffffffffffffffffffffffffffffffffff948516600482015292909316602483015260448201529051606480830192600092919082900301818387803b158015610c3a57600080fd5b505af1158015610c4e573d6000803e3d6000fd5b50505050505050565b6106c5828283611ac0565b60035460408051808201909152601f81527f54454d504c4154455f415241474f4e5f49445f4e4f545f50524f56494445440060208201529073ffffffffffffffffffffffffffffffffffffffff161515610d18576040517f08c379a00000000000000000000000000000000000000000000000000000000081526004018080602001828103825283818151815260200191508051906020019080838360008381101561068a578181015183820152602001610672565b50600354604051835173ffffffffffffffffffffffffffffffffffffffff9092169163d22057a99185916020918201918291908401908083835b60208310610d8f57805182527fffffffffffffffffffffffffffffffffffffffffffffffffffffffffffffffe09092019160209182019101610d52565b6001836020036101000a0380198251168184511680821785525050505050509050019150506040516020818303038152906040526040518082805190602001908083835b60208310610e1057805182527fffffffffffffffffffffffffffffffffffffffffffffffffffffffffffffffe09092019160209182019101610dd3565b5181516020939093036101000a7fffffffffffffffffffffffffffffffffffffffffffffffffffffffffffffffff01801990911692169190911790526040805191909301819003812063ffffffff87167c0100000000000000000000000000000000000000000000000000000000028252600482015273ffffffffffffffffffffffffffffffffffffffff88166024820152915160448084019550600094509092839003019050818387803b158015610ec857600080fd5b505af1158015610edc573d6000803e3d6000fd5b505050505050565b6002546040805180820190915260208082527f54454d504c4154455f4d494e494d455f4641435f4e4f545f50524f56494445449082015260009182919073ffffffffffffffffffffffffffffffffffffffff161515610f9f576040517f08c379a00000000000000000000000000000000000000000000000000000000081526004018080602001828103825283818151815260200191508051906020019080838360008381101561068a578181015183820152602001610672565b506002546040517f5b7b72c10000000000000000000000000000000000000000000000000000000081526000600482018181526024830182905260ff87166064840152600160a4840181905260c0604485019081528a5160c48601528a5173ffffffffffffffffffffffffffffffffffffffff90961695635b7b72c19585948d948c948e9491939091608482019160e4019060208901908083838d5b8381101561105357818101518382015260200161103b565b50505050905090810190601f1680156110805780820380516001836020036101000a031916815260200191505b50838103825285518152855160209182019187019080838360005b838110156110b357818101518382015260200161109b565b50505050905090810190601f1680156110e05780820380516001836020036101000a031916815260200191505b5098505050505050505050602060405180830381600087803b15801561110557600080fd5b505af1158015611119573d6000803e3d6000fd5b505050506040513d602081101561112f57600080fd5b50516040805173ffffffffffffffffffffffffffffffffffffffff8316815290519192507fd18525bc6595a90cc21e9fbd517ada6fc07a7e87b7d2cdb6ee9284c450ebffa4919081900360200190a1949350505050565b73ffffffffffffffffffffffffffffffffffffffff90811660009081526004602052604090208054919092167fffffffffffffffffffffffff0000000000000000000000000000000000000000909116179055565b6111e68484846106c9565b60408051808201909152601c81527f434f4d50414e595f4241445f504159524f4c4c5f53455454494e47530000000060208201525b5050505050565b60008060008060008061123487611cb3565b9298509096509450925073ffffffffffffffffffffffffffffffffffffffff8316156112605782611262565b875b91506112718b8a888888611cfd565b90506112808a82848b8c611dd4565b6105dc8a8a83612823565b604080517fbe038478000000000000000000000000000000000000000000000000000000008152306004820181905273ffffffffffffffffffffffffffffffffffffffff858116602484015260448301859052606483019190915291519185169163be0384789160848082019260009290919082900301818387803b158015610c3a57600080fd5b73ffffffffffffffffffffffffffffffffffffffff8181166000908152600460209081526040808320548151808301909252601c82527f54454d504c4154455f4d495353494e475f544f4b454e5f4341434845000000009282019290925291928392911615156113df576040517f08c379a00000000000000000000000000000000000000000000000000000000081526004018080602001828103825283818151815260200191508051906020019080838360008381101561068a578181015183820152602001610672565b50505073ffffffffffffffffffffffffffffffffffffffff908116600090815260046020526040902080547fffffffffffffffffffffffff000000000000000000000000000000000000000081169091551690565b6040805160048152602481019091526020810180517bffffffffffffffffffffffffffffffffffffffffffffffffffffffff167f8129fc1c00000000000000000000000000000000000000000000000000000000179052600090610441837f7e852e0fcfce6551c13800f1e7476f982525c2b5277ba14b24339c68416336d1836128a5565b6040805160048152602481019091526020810180517bffffffffffffffffffffffffffffffffffffffffffffffffffffffff167f8129fc1c000000000000000000000000000000000000000000000000000000001790526000908161153f847f9ac98dc5f995bf0211ed589ef022719d1487e5cb2bab505676f0d084c07cf89a846128a5565b604080517f8c61757d0000000000000000000000000000000000000000000000000000000081527f9ac98dc5f995bf0211ed589ef022719d1487e5cb2bab505676f0d084c07cf89a6004820152905191925073ffffffffffffffffffffffffffffffffffffffff861691638c61757d9160248082019260009290919082900301818387803b1580156115d057600080fd5b505af11580156115e4573d6000803e3d6000fd5b50929695505050505050565b6040805173ffffffffffffffffffffffffffffffffffffffff8416602482015267ffffffffffffffff83166044808301919091528251808303909101815260649091019091526020810180517bffffffffffffffffffffffffffffffffffffffffffffffffffffffff167f1798de81000000000000000000000000000000000000000000000000000000001790526000906116ac857fbf8491150dafc5dcaee5b861414dca922de09ccffa344964ae167212e8c673ae836128b4565b95945050505050565b6000806116e2867f6b20a3010614eeebf2138ccec99f028a61c811b3b1a3343b6ff635985c75c91f6128c3565b90508473ffffffffffffffffffffffffffffffffffffffff16633cebb823826040518263ffffffff167c0100000000000000000000000000000000000000000000000000000000028152600401808273ffffffffffffffffffffffffffffffffffffffff1673ffffffffffffffffffffffffffffffffffffffff168152602001915050600060405180830381600087803b15801561177f57600080fd5b505af1158015611793573d6000803e3d6000fd5b5050604080517fe37ff29f00000000000000000000000000000000000000000000000000000000815273ffffffffffffffffffffffffffffffffffffffff89811660048301528815156024830152604482018890529151918516935063e37ff29f925060648082019260009290919082900301818387803b15801561181757600080fd5b505af115801561182b573d6000803e3d6000fd5b509298975050505050505050565b805160208201516040830151600092611857928792879291906128e0565b949350505050565b60006118ca85858673ffffffffffffffffffffffffffffffffffffffff1663e9a9c8506040518163ffffffff167c0100000000000000000000000000000000000000000000000000000000028152600401602060405180830381600087803b158015610a3857600080fd5b5060005b82518110156119cc578373ffffffffffffffffffffffffffffffffffffffff166340c10f19848381518110151561190157fe5b90602001906020020151848481518110151561191957fe5b906020019060200201516040518363ffffffff167c0100000000000000000000000000000000000000000000000000000000028152600401808373ffffffffffffffffffffffffffffffffffffffff1673ffffffffffffffffffffffffffffffffffffffff16815260200182815260200192505050600060405180830381600087803b1580156119a857600080fd5b505af11580156119bc573d6000803e3d6000fd5b5050600190920191506118ce9050565b61121b85858673ffffffffffffffffffffffffffffffffffffffff1663e9a9c8506040518163ffffffff167c0100000000000000000000000000000000000000000000000000000000028152600401602060405180830381600087803b158015611a3557600080fd5b505af1158015611a49573d6000803e3d6000fd5b505050506040513d6020811015611a5f57600080fd5b50516129ac565b8015611a7857611a7886868687612aba565b611a8486868587612d52565b611a9086848687612dd4565b611a9c86848630612f9f565b611aa7868586613021565b611ab48685868588613325565b610edc86838687613639565b60008373ffffffffffffffffffffffffffffffffffffffff1663de2873596040518163ffffffff167c0100000000000000000000000000000000000000000000000000000000028152600401602060405180830381600087803b158015611b2657600080fd5b505af1158015611b3a573d6000803e3d6000fd5b505050506040513d6020811015611b5057600080fd5b5051604080517f8ea8dc9d0000000000000000000000000000000000000000000000000000000081529051919250611bfa9183918791879173ffffffffffffffffffffffffffffffffffffffff841691638ea8dc9d916004808201926020929091908290030181600087803b158015611bc857600080fd5b505af1158015611bdc573d6000803e3d6000fd5b505050506040513d6020811015611bf257600080fd5b505186613804565b611c648182858473ffffffffffffffffffffffffffffffffffffffff16633d6ab68f6040518163ffffffff167c0100000000000000000000000000000000000000000000000000000000028152600401602060405180830381600087803b158015611bc857600080fd5b6040805173ffffffffffffffffffffffffffffffffffffffff8616815290517f17592627a66846ce06d92a1708275bc653b2a3f34aec855584b819872a8ba4139181900360200190a150505050565b6000808080611cc885825b60200201516139b2565b9350611cd5856001611cbe565b9250611ce78560026020020151613a96565b9150611cf4856003611cbe565b90509193509193565b6040805173ffffffffffffffffffffffffffffffffffffffff868116602483015285811660448301528416606482015267ffffffffffffffff83166084808301919091528251808303909101815260a49091019091526020810180517bffffffffffffffffffffffffffffffffffffffffffffffffffffffff167f3fe3f1cf00000000000000000000000000000000000000000000000000000000179052600090611dc9877f463f596a96d808cb28b5d080181e4a398bc793df2c222f6445189eb801001991836128b4565b979650505050505050565b8473ffffffffffffffffffffffffffffffffffffffff1663be03847884868773ffffffffffffffffffffffffffffffffffffffff166335285a0f6040518163ffffffff167c0100000000000000000000000000000000000000000000000000000000028152600401602060405180830381600087803b158015611e5657600080fd5b505af1158015611e6a573d6000803e3d6000fd5b505050506040513d6020811015611e8057600080fd5b5051604080517c010000000000000000000000000000000000000000000000000000000063ffffffff871602815273ffffffffffffffffffffffffffffffffffffffff94851660048201529284166024840152604483019190915291851660648201529051608480830192600092919082900301818387803b158015611f0557600080fd5b505af1158015611f19573d6000803e3d6000fd5b505050508473ffffffffffffffffffffffffffffffffffffffff1663be03847884868773ffffffffffffffffffffffffffffffffffffffff1663bf510ff46040518163ffffffff167c0100000000000000000000000000000000000000000000000000000000028152600401602060405180830381600087803b158015611f9f57600080fd5b505af1158015611fb3573d6000803e3d6000fd5b505050506040513d6020811015611fc957600080fd5b5051604080517c010000000000000000000000000000000000000000000000000000000063ffffffff871602815273ffffffffffffffffffffffffffffffffffffffff94851660048201529284166024840152604483019190915291851660648201529051608480830192600092919082900301818387803b15801561204e57600080fd5b505af1158015612062573d6000803e3d6000fd5b505050508473ffffffffffffffffffffffffffffffffffffffff1663be03847884868773ffffffffffffffffffffffffffffffffffffffff166388ea92476040518163ffffffff167c0100000000000000000000000000000000000000000000000000000000028152600401602060405180830381600087803b1580156120e857600080fd5b505af11580156120fc573d6000803e3d6000fd5b505050506040513d602081101561211257600080fd5b5051604080517c010000000000000000000000000000000000000000000000000000000063ffffffff871602815273ffffffffffffffffffffffffffffffffffffffff94851660048201529284166024840152604483019190915291851660648201529051608480830192600092919082900301818387803b15801561219757600080fd5b505af11580156121ab573d6000803e3d6000fd5b505050508473ffffffffffffffffffffffffffffffffffffffff1663be03847884868773ffffffffffffffffffffffffffffffffffffffff16637100650e6040518163ffffffff167c0100000000000000000000000000000000000000000000000000000000028152600401602060405180830381600087803b15801561223157600080fd5b505af1158015612245573d6000803e3d6000fd5b505050506040513d602081101561225b57600080fd5b5051604080517c010000000000000000000000000000000000000000000000000000000063ffffffff871602815273ffffffffffffffffffffffffffffffffffffffff94851660048201529284166024840152604483019190915291851660648201529051608480830192600092919082900301818387803b1580156122e057600080fd5b505af11580156122f4573d6000803e3d6000fd5b505050508473ffffffffffffffffffffffffffffffffffffffff1663be03847884868773ffffffffffffffffffffffffffffffffffffffff1663456fbfea6040518163ffffffff167c0100000000000000000000000000000000000000000000000000000000028152600401602060405180830381600087803b15801561237a57600080fd5b505af115801561238e573d6000803e3d6000fd5b505050506040513d60208110156123a457600080fd5b5051604080517c010000000000000000000000000000000000000000000000000000000063ffffffff871602815273ffffffffffffffffffffffffffffffffffffffff94851660048201529284166024840152604483019190915291851660648201529051608480830192600092919082900301818387803b15801561242957600080fd5b505af115801561243d573d6000803e3d6000fd5b505050508473ffffffffffffffffffffffffffffffffffffffff1663be03847883868773ffffffffffffffffffffffffffffffffffffffff1663595da7296040518163ffffffff167c0100000000000000000000000000000000000000000000000000000000028152600401602060405180830381600087803b1580156124c357600080fd5b505af11580156124d7573d6000803e3d6000fd5b505050506040513d60208110156124ed57600080fd5b5051604080517c010000000000000000000000000000000000000000000000000000000063ffffffff871602815273ffffffffffffffffffffffffffffffffffffffff94851660048201529284166024840152604483019190915291851660648201529051608480830192600092919082900301818387803b15801561257257600080fd5b505af1158015612586573d6000803e3d6000fd5b505050508473ffffffffffffffffffffffffffffffffffffffff1663be03847883868773ffffffffffffffffffffffffffffffffffffffff16632ee235ef6040518163ffffffff167c0100000000000000000000000000000000000000000000000000000000028152600401602060405180830381600087803b15801561260c57600080fd5b505af1158015612620573d6000803e3d6000fd5b505050506040513d602081101561263657600080fd5b5051604080517c010000000000000000000000000000000000000000000000000000000063ffffffff871602815273ffffffffffffffffffffffffffffffffffffffff94851660048201529284166024840152604483019190915291851660648201529051608480830192600092919082900301818387803b1580156126bb57600080fd5b505af11580156126cf573d6000803e3d6000fd5b505050508473ffffffffffffffffffffffffffffffffffffffff1663be03847883868773ffffffffffffffffffffffffffffffffffffffff16631bb440b16040518163ffffffff167c0100000000000000000000000000000000000000000000000000000000028152600401602060405180830381600087803b15801561275557600080fd5b505af1158015612769573d6000803e3d6000fd5b505050506040513d602081101561277f57600080fd5b5051604080517c010000000000000000000000000000000000000000000000000000000063ffffffff871602815273ffffffffffffffffffffffffffffffffffffffff94851660048201529284166024840152604483019190915291851660648201529051608480830192600092919082900301818387803b15801561280457600080fd5b505af1158015612818573d6000803e3d6000fd5b505050505050505050565b8273ffffffffffffffffffffffffffffffffffffffff16630a8ed3db82848573ffffffffffffffffffffffffffffffffffffffff16630842ace46040518163ffffffff167c0100000000000000000000000000000000000000000000000000000000028152600401602060405180830381600087803b158015610b9557600080fd5b60006118578484846001613b3f565b60006118578484846000613b3f565b6040805160008082526020820190925261044190849084906128b4565b6040805173ffffffffffffffffffffffffffffffffffffffff8616602482015267ffffffffffffffff8086166044830152808516606483015283166084808301919091528251808303909101815260a49091019091526020810180517bffffffffffffffffffffffffffffffffffffffffffffffffffffffff167fdf3d330500000000000000000000000000000000000000000000000000000000179052600090611dc9877f9fa3927f639745e587912d4b0fea7ef9013bf93fb907d29faeab57417ba6e1d4836128b4565b604080517f9d0effdb00000000000000000000000000000000000000000000000000000000815230600482015273ffffffffffffffffffffffffffffffffffffffff848116602483015260448201849052915191851691639d0effdb9160648082019260009290919082900301818387803b158015612a2a57600080fd5b505af1158015612a3e573d6000803e3d6000fd5b5050604080517fa885508a00000000000000000000000000000000000000000000000000000000815273ffffffffffffffffffffffffffffffffffffffff8681166004830152602482018690529151918716935063a885508a925060448082019260009290919082900301818387803b158015610c3a57600080fd5b8373ffffffffffffffffffffffffffffffffffffffff1663be03847883858673ffffffffffffffffffffffffffffffffffffffff16635fa5e4e66040518163ffffffff167c0100000000000000000000000000000000000000000000000000000000028152600401602060405180830381600087803b158015612b3c57600080fd5b505af1158015612b50573d6000803e3d6000fd5b505050506040513d6020811015612b6657600080fd5b5051604080517c010000000000000000000000000000000000000000000000000000000063ffffffff871602815273ffffffffffffffffffffffffffffffffffffffff94851660048201529284166024840152604483019190915291851660648201529051608480830192600092919082900301818387803b158015612beb57600080fd5b505af1158015612bff573d6000803e3d6000fd5b505050508373ffffffffffffffffffffffffffffffffffffffff1663be03847883858673ffffffffffffffffffffffffffffffffffffffff1663368c3c346040518163ffffffff167c0100000000000000000000000000000000000000000000000000000000028152600401602060405180830381600087803b158015612c8557600080fd5b505af1158015612c99573d6000803e3d6000fd5b505050506040513d6020811015612caf57600080fd5b5051604080517c010000000000000000000000000000000000000000000000000000000063ffffffff871602815273ffffffffffffffffffffffffffffffffffffffff94851660048201529284166024840152604483019190915291851660648201529051608480830192600092919082900301818387803b158015612d3457600080fd5b505af1158015612d48573d6000803e3d6000fd5b5050505050505050565b8373ffffffffffffffffffffffffffffffffffffffff1663be03847883858673ffffffffffffffffffffffffffffffffffffffff1663206b60f96040518163ffffffff167c0100000000000000000000000000000000000000000000000000000000028152600401602060405180830381600087803b158015612c8557600080fd5b8373ffffffffffffffffffffffffffffffffffffffff1663be03847883858673ffffffffffffffffffffffffffffffffffffffff1663981cc3426040518163ffffffff167c0100000000000000000000000000000000000000000000000000000000028152600401602060405180830381600087803b158015612e5657600080fd5b505af1158015612e6a573d6000803e3d6000fd5b505050506040513d6020811015612e8057600080fd5b5051604080517c010000000000000000000000000000000000000000000000000000000063ffffffff871602815273ffffffffffffffffffffffffffffffffffffffff94851660048201529284166024840152604483019190915291851660648201529051608480830192600092919082900301818387803b158015612f0557600080fd5b505af1158015612f19573d6000803e3d6000fd5b505050508373ffffffffffffffffffffffffffffffffffffffff1663be03847883858673ffffffffffffffffffffffffffffffffffffffff1663e94ebac56040518163ffffffff167c0100000000000000000000000000000000000000000000000000000000028152600401602060405180830381600087803b158015612c8557600080fd5b8373ffffffffffffffffffffffffffffffffffffffff1663be03847883858673ffffffffffffffffffffffffffffffffffffffff16630842ace46040518163ffffffff167c0100000000000000000000000000000000000000000000000000000000028152600401602060405180830381600087803b158015612c8557600080fd5b60008373ffffffffffffffffffffffffffffffffffffffff1663a479e5086040518163ffffffff167c0100000000000000000000000000000000000000000000000000000000028152600401602060405180830381600087803b15801561308757600080fd5b505af115801561309b573d6000803e3d6000fd5b505050506040513d60208110156130b157600080fd5b5051604080517fbd8fde1c000000000000000000000000000000000000000000000000000000008152905191925073ffffffffffffffffffffffffffffffffffffffff8087169263be03847892879286929083169163bd8fde1c9160048083019260209291908290030181600087803b15801561312d57600080fd5b505af1158015613141573d6000803e3d6000fd5b505050506040513d602081101561315757600080fd5b5051604080517c010000000000000000000000000000000000000000000000000000000063ffffffff871602815273ffffffffffffffffffffffffffffffffffffffff94851660048201529284166024840152604483019190915291861660648201529051608480830192600092919082900301818387803b1580156131dc57600080fd5b505af11580156131f0573d6000803e3d6000fd5b505050508373ffffffffffffffffffffffffffffffffffffffff1663be03847884838473ffffffffffffffffffffffffffffffffffffffff166319f3d10f6040518163ffffffff167c0100000000000000000000000000000000000000000000000000000000028152600401602060405180830381600087803b15801561327657600080fd5b505af115801561328a573d6000803e3d6000fd5b505050506040513d60208110156132a057600080fd5b5051604080517c010000000000000000000000000000000000000000000000000000000063ffffffff871602815273ffffffffffffffffffffffffffffffffffffffff94851660048201529284166024840152604483019190915291861660648201529051608480830192600092919082900301818387803b158015612d3457600080fd5b8473ffffffffffffffffffffffffffffffffffffffff1663be03847884868773ffffffffffffffffffffffffffffffffffffffff16633c624c756040518163ffffffff167c0100000000000000000000000000000000000000000000000000000000028152600401602060405180830381600087803b1580156133a757600080fd5b505af11580156133bb573d6000803e3d6000fd5b505050506040513d60208110156133d157600080fd5b5051604080517c010000000000000000000000000000000000000000000000000000000063ffffffff871602815273ffffffffffffffffffffffffffffffffffffffff94851660048201529284166024840152604483019190915291851660648201529051608480830192600092919082900301818387803b15801561345657600080fd5b505af115801561346a573d6000803e3d6000fd5b505050508473ffffffffffffffffffffffffffffffffffffffff1663be03847884868773ffffffffffffffffffffffffffffffffffffffff166362de7e5a6040518163ffffffff167c0100000000000000000000000000000000000000000000000000000000028152600401602060405180830381600087803b1580156134f057600080fd5b505af1158015613504573d6000803e3d6000fd5b505050506040513d602081101561351a57600080fd5b5051604080517c010000000000000000000000000000000000000000000000000000000063ffffffff871602815273ffffffffffffffffffffffffffffffffffffffff94851660048201529284166024840152604483019190915291851660648201529051608480830192600092919082900301818387803b15801561359f57600080fd5b505af11580156135b3573d6000803e3d6000fd5b505050508473ffffffffffffffffffffffffffffffffffffffff1663be03847883868773ffffffffffffffffffffffffffffffffffffffff1663be2c64d46040518163ffffffff167c0100000000000000000000000000000000000000000000000000000000028152600401602060405180830381600087803b15801561275557600080fd5b8373ffffffffffffffffffffffffffffffffffffffff1663be03847883858673ffffffffffffffffffffffffffffffffffffffff1663e9a9c8506040518163ffffffff167c0100000000000000000000000000000000000000000000000000000000028152600401602060405180830381600087803b1580156136bb57600080fd5b505af11580156136cf573d6000803e3d6000fd5b505050506040513d60208110156136e557600080fd5b5051604080517c010000000000000000000000000000000000000000000000000000000063ffffffff871602815273ffffffffffffffffffffffffffffffffffffffff94851660048201529284166024840152604483019190915291851660648201529051608480830192600092919082900301818387803b15801561376a57600080fd5b505af115801561377e573d6000803e3d6000fd5b505050508373ffffffffffffffffffffffffffffffffffffffff1663be03847883858673ffffffffffffffffffffffffffffffffffffffff1663b930908f6040518163ffffffff167c0100000000000000000000000000000000000000000000000000000000028152600401602060405180830381600087803b158015612c8557600080fd5b604080517f0a8ed3db00000000000000000000000000000000000000000000000000000000815273ffffffffffffffffffffffffffffffffffffffff8581166004830152868116602483015260448201859052915191871691630a8ed3db9160648082019260009290919082900301818387803b15801561388457600080fd5b505af1158015613898573d6000803e3d6000fd5b5050604080517f9d0effdb00000000000000000000000000000000000000000000000000000000815230600482015273ffffffffffffffffffffffffffffffffffffffff88811660248301526044820187905291519189169350639d0effdb925060648082019260009290919082900301818387803b15801561391a57600080fd5b505af115801561392e573d6000803e3d6000fd5b5050604080517fafd925df00000000000000000000000000000000000000000000000000000000815273ffffffffffffffffffffffffffffffffffffffff85811660048301528881166024830152604482018790529151918916935063afd925df925060648082019260009290919082900301818387803b15801561280457600080fd5b60408051606081018252602581527f54454d504c4154455f43414e4e4f545f434153545f56414c55455f544f5f414460208201527f44524553530000000000000000000000000000000000000000000000000000009181019190915260009073ffffffffffffffffffffffffffffffffffffffff831115613a8f576040517f08c379a00000000000000000000000000000000000000000000000000000000081526004018080602001828103825283818151815260200191508051906020019080838360008381101561068a578181015183820152602001610672565b5090919050565b60408051808201909152601581527f55494e5436345f4e554d4245525f544f4f5f4249470000000000000000000000602082015260009067ffffffffffffffff831115613a8f576040517f08c379a00000000000000000000000000000000000000000000000000000000081526004018080602001828103825283818151815260200191508051906020019080838360008381101561068a578181015183820152602001610672565b6000806000613b4d86613cc6565b6040517f397edd410000000000000000000000000000000000000000000000000000000081526004810188815273ffffffffffffffffffffffffffffffffffffffff80841660248401528715156064840152608060448401908152895160848501528951949650908b169363397edd41938b9388938c938c9360a40190602086019080838360005b83811015613bed578181015183820152602001613bd5565b50505050905090810190601f168015613c1a5780820380516001836020036101000a031916815260200191505b5095505050505050602060405180830381600087803b158015613c3c57600080fd5b505af1158015613c50573d6000803e3d6000fd5b505050506040513d6020811015613c6657600080fd5b50516040805173ffffffffffffffffffffffffffffffffffffffff831681526020810189905281519293507f2b183a501d4b1bbd30e6611ebac40ab18a00390e6c6bed324bf92a265c9ce6e3929081900390910190a19695505050505050565b60008054604080517f0178b8bf000000000000000000000000000000000000000000000000000000008152600481018590529051839273ffffffffffffffffffffffffffffffffffffffff1691630178b8bf91602480830192602092919082900301818787803b158015613d3957600080fd5b505af1158015613d4d573d6000803e3d6000fd5b505050506040513d6020811015613d6357600080fd5b5051604080517f3b3b57de00000000000000000000000000000000000000000000000000000000815260048101869052905173ffffffffffffffffffffffffffffffffffffffff90921691633b3b57de916024808201926020929091908290030181600087803b158015613dd657600080fd5b505af1158015613dea573d6000803e3d6000fd5b505050506040513d6020811015613e0057600080fd5b5051604080517fc36af460000000000000000000000000000000000000000000000000000000008152905191925073ffffffffffffffffffffffffffffffffffffffff83169163c36af4609160048082019260009290919082900301818387803b158015613e6d57600080fd5b505af1158015613e81573d6000803e3d6000fd5b505050506040513d6000823e601f3d9081017fffffffffffffffffffffffffffffffffffffffffffffffffffffffffffffffe016820160405260a0811015613ec857600080fd5b60608201516080830180519192840191849190640100000000811115613eed57600080fd5b82016020810184811115613f0057600080fd5b8151640100000000811182820187101715613f1a57600080fd5b509499985050505050505050505600a165627a7a723058206b544d535b19422fe3e1bc5139159c8885269d20cceedb0cb29b2e62556878630029",
    "source": "pragma solidity 0.4.24;\n\nimport \"@aragon/templates-shared/contracts/TokenCache.sol\";\nimport \"@aragon/templates-shared/contracts/BaseTemplate.sol\";\n\n\ncontract CompanyTemplate is BaseTemplate, TokenCache {\n    string constant private ERROR_EMPTY_HOLDERS = \"COMPANY_EMPTY_HOLDERS\";\n    string constant private ERROR_BAD_HOLDERS_STAKES_LEN = \"COMPANY_BAD_HOLDERS_STAKES_LEN\";\n    string constant private ERROR_BAD_VOTE_SETTINGS = \"COMPANY_BAD_VOTE_SETTINGS\";\n    string constant private ERROR_BAD_PAYROLL_SETTINGS = \"COMPANY_BAD_PAYROLL_SETTINGS\";\n\n    bool constant private TOKEN_TRANSFERABLE = true;\n    uint8 constant private TOKEN_DECIMALS = uint8(18);\n    uint256 constant private TOKEN_MAX_PER_ACCOUNT = uint256(0);\n    uint64 constant private DEFAULT_FINANCE_PERIOD = uint64(30 days);\n\n    constructor(DAOFactory _daoFactory, ENS _ens, MiniMeTokenFactory _miniMeFactory, IFIFSResolvingRegistrar _aragonID)\n        BaseTemplate(_daoFactory, _ens, _miniMeFactory, _aragonID)\n        public\n    {\n        _ensureAragonIdIsValid(_aragonID);\n        _ensureMiniMeFactoryIsValid(_miniMeFactory);\n    }\n\n    /**\n    * @dev Create a new MiniMe token and deploy a Company DAO. This function does not allow Payroll\n    *      to be setup due to gas limits.\n    * @param _tokenName String with the name for the token used by share holders in the organization\n    * @param _tokenSymbol String with the symbol for the token used by share holders in the organization\n    * @param _id String with the name for org, will assign `[id].aragonid.eth`\n    * @param _holders Array of token holder addresses\n    * @param _stakes Array of token stakes for holders (token has 18 decimals, multiply token amount `* 10^18`)\n    * @param _votingSettings Array of [supportRequired, minAcceptanceQuorum, voteDuration] to set up the voting app of the organization\n    * @param _financePeriod Initial duration for accounting periods, it can be set to zero in order to use the default of 30 days.\n    * @param _useAgentAsVault Boolean to tell whether to use an Agent app as a more advanced form of Vault app\n    */\n    function newTokenAndInstance(\n        string _tokenName,\n        string _tokenSymbol,\n        string _id,\n        address[] _holders,\n        uint256[] _stakes,\n        uint64[3] _votingSettings,\n        uint64 _financePeriod,\n        bool _useAgentAsVault\n    )\n        external\n    {\n        newToken(_tokenName, _tokenSymbol);\n        newInstance(_id, _holders, _stakes, _votingSettings, _financePeriod, _useAgentAsVault);\n    }\n\n    /**\n    * @dev Create a new MiniMe token and cache it for the user\n    * @param _name String with the name for the token used by share holders in the organization\n    * @param _symbol String with the symbol for the token used by share holders in the organization\n    */\n    function newToken(string memory _name, string memory _symbol) public returns (MiniMeToken) {\n        MiniMeToken token = _createToken(_name, _symbol, TOKEN_DECIMALS);\n        _cacheToken(token, msg.sender);\n        return token;\n    }\n\n    /**\n    * @dev Deploy a Company DAO using a previously cached MiniMe token\n    * @param _id String with the name for org, will assign `[id].aragonid.eth`\n    * @param _holders Array of token holder addresses\n    * @param _stakes Array of token stakes for holders (token has 18 decimals, multiply token amount `* 10^18`)\n    * @param _votingSettings Array of [supportRequired, minAcceptanceQuorum, voteDuration] to set up the voting app of the organization\n    * @param _financePeriod Initial duration for accounting periods, it can be set to zero in order to use the default of 30 days.\n    * @param _useAgentAsVault Boolean to tell whether to use an Agent app as a more advanced form of Vault app\n    */\n    function newInstance(\n        string memory _id,\n        address[] memory _holders,\n        uint256[] memory _stakes,\n        uint64[3] memory _votingSettings,\n        uint64 _financePeriod,\n        bool _useAgentAsVault\n    )\n        public\n    {\n        _validateId(_id);\n        _ensureCompanySettings(_holders, _stakes, _votingSettings);\n\n        (Kernel dao, ACL acl) = _createDAO();\n        (Finance finance, Voting voting) = _setupApps(dao, acl, _holders, _stakes, _votingSettings, _financePeriod, _useAgentAsVault);\n        _transferCreatePaymentManagerFromTemplate(acl, finance, voting);\n        _transferRootPermissionsFromTemplateAndFinalizeDAO(dao, voting);\n        _registerID(_id, dao);\n    }\n\n    /**\n    * @dev Deploy a Company DAO using a previously cached MiniMe token\n    * @param _id String with the name for org, will assign `[id].aragonid.eth`\n    * @param _holders Array of token holder addresses\n    * @param _stakes Array of token stakes for holders (token has 18 decimals, multiply token amount `* 10^18`)\n    * @param _votingSettings Array of [supportRequired, minAcceptanceQuorum, voteDuration] to set up the voting app of the organization\n    * @param _financePeriod Initial duration for accounting periods, it can be set to zero in order to use the default of 30 days.\n    * @param _useAgentAsVault Boolean to tell whether to use an Agent app as a more advanced form of Vault app\n    * @param _payrollSettings Array of [address denominationToken , IFeed priceFeed, uint64 rateExpiryTime, address employeeManager]\n             for the payroll app. The `employeeManager` can be set to `0x0` in order to use the voting app as the employee manager.\n    */\n    function newInstance(\n        string memory _id,\n        address[] memory _holders,\n        uint256[] memory _stakes,\n        uint64[3] memory _votingSettings,\n        uint64 _financePeriod,\n        bool _useAgentAsVault,\n        uint256[4] memory _payrollSettings\n    )\n        public\n    {\n        _validateId(_id);\n        _ensureCompanySettings(_holders, _stakes, _votingSettings, _payrollSettings);\n\n        (Kernel dao, ACL acl) = _createDAO();\n        (Finance finance, Voting voting) = _setupApps(dao, acl, _holders, _stakes, _votingSettings, _financePeriod, _useAgentAsVault);\n        _setupPayrollApp(dao, acl, finance, voting, _payrollSettings);\n        _transferCreatePaymentManagerFromTemplate(acl, finance, voting);\n        _transferRootPermissionsFromTemplateAndFinalizeDAO(dao, voting);\n        _registerID(_id, dao);\n    }\n\n    function _setupApps(\n        Kernel _dao,\n        ACL _acl,\n        address[] memory _holders,\n        uint256[] memory _stakes,\n        uint64[3] memory _votingSettings,\n        uint64 _financePeriod,\n        bool _useAgentAsVault\n    )\n        internal\n        returns (Finance, Voting)\n    {\n        MiniMeToken token = _popTokenCache(msg.sender);\n        Vault agentOrVault = _useAgentAsVault ? _installDefaultAgentApp(_dao) : _installVaultApp(_dao);\n        Finance finance = _installFinanceApp(_dao, agentOrVault, _financePeriod == 0 ? DEFAULT_FINANCE_PERIOD : _financePeriod);\n        TokenManager tokenManager = _installTokenManagerApp(_dao, token, TOKEN_TRANSFERABLE, TOKEN_MAX_PER_ACCOUNT);\n        Voting voting = _installVotingApp(_dao, token, _votingSettings);\n\n        _mintTokens(_acl, tokenManager, _holders, _stakes);\n        _setupPermissions(_acl, agentOrVault, voting, finance, tokenManager, _useAgentAsVault);\n\n        return (finance, voting);\n    }\n\n    function _setupPayrollApp(Kernel _dao, ACL _acl, Finance _finance, Voting _voting, uint256[4] memory _payrollSettings) internal {\n        (address denominationToken, IFeed priceFeed, uint64 rateExpiryTime, address employeeManager) = _unwrapPayrollSettings(_payrollSettings);\n        address manager = employeeManager == address(0) ? _voting : employeeManager;\n\n        Payroll payroll = _installPayrollApp(_dao, _finance, denominationToken, priceFeed, rateExpiryTime);\n        _createPayrollPermissions(_acl, payroll, manager, _voting, _voting);\n        _grantCreatePaymentPermission(_acl, _finance, payroll);\n    }\n\n    function _setupPermissions(\n        ACL _acl,\n        Vault _agentOrVault,\n        Voting _voting,\n        Finance _finance,\n        TokenManager _tokenManager,\n        bool _useAgentAsVault\n    )\n        internal\n    {\n        if (_useAgentAsVault) {\n            _createAgentPermissions(_acl, Agent(_agentOrVault), _voting, _voting);\n        }\n        _createVaultPermissions(_acl, _agentOrVault, _finance, _voting);\n        _createFinancePermissions(_acl, _finance, _voting, _voting);\n        _createFinanceCreatePaymentsPermission(_acl, _finance, _voting, address(this));\n        _createEvmScriptsRegistryPermissions(_acl, _voting, _voting);\n        _createVotingPermissions(_acl, _voting, _voting, _tokenManager, _voting);\n        _createTokenManagerPermissions(_acl, _tokenManager, _voting, _voting);\n    }\n\n    function _ensureCompanySettings(\n        address[] memory _holders,\n        uint256[] memory _stakes,\n        uint64[3] memory _votingSettings,\n        uint256[4] memory _payrollSettings\n    )\n        private\n        pure\n    {\n        _ensureCompanySettings(_holders, _stakes, _votingSettings);\n        require(_payrollSettings.length == 4, ERROR_BAD_PAYROLL_SETTINGS);\n    }\n\n    function _ensureCompanySettings(address[] memory _holders, uint256[] memory _stakes, uint64[3] memory _votingSettings) private pure {\n        require(_holders.length > 0, ERROR_EMPTY_HOLDERS);\n        require(_holders.length == _stakes.length, ERROR_BAD_HOLDERS_STAKES_LEN);\n        require(_votingSettings.length == 3, ERROR_BAD_VOTE_SETTINGS);\n    }\n}\n",
    "sourcePath": "/Users/present/code/badger-dao-template/contracts/CompanyTemplate.sol",
    "compiler": {
        "name": "solc",
        "version": "0.4.24+commit.e67f0147.Emscripten.clang"
    },
    "schemaVersion": "2.0.1",
    "updatedAt": "2020-08-30T16:48:34.355Z"
}