{
    "contractName": "Vault",
    "abi": [
        {
            "constant": true,
            "inputs": [],
            "name": "hasInitialized",
            "outputs": [
                {
                    "name": "",
                    "type": "bool"
                }
            ],
            "payable": false,
            "stateMutability": "view",
            "type": "function"
        },
        {
            "constant": true,
            "inputs": [],
            "name": "TRANSFER_ROLE",
            "outputs": [
                {
                    "name": "",
                    "type": "bytes32"
                }
            ],
            "payable": false,
            "stateMutability": "view",
            "type": "function"
        },
        {
            "constant": true,
            "inputs": [
                {
                    "name": "_script",
                    "type": "bytes"
                }
            ],
            "name": "getEVMScriptExecutor",
            "outputs": [
                {
                    "name": "",
                    "type": "address"
                }
            ],
            "payable": false,
            "stateMutability": "view",
            "type": "function"
        },
        {
            "constant": true,
            "inputs": [],
            "name": "getRecoveryVault",
            "outputs": [
                {
                    "name": "",
                    "type": "address"
                }
            ],
            "payable": false,
            "stateMutability": "view",
            "type": "function"
        },
        {
            "constant": true,
            "inputs": [],
            "name": "isDepositable",
            "outputs": [
                {
                    "name": "",
                    "type": "bool"
                }
            ],
            "payable": false,
            "stateMutability": "view",
            "type": "function"
        },
        {
            "constant": true,
            "inputs": [],
            "name": "appId",
            "outputs": [
                {
                    "name": "",
                    "type": "bytes32"
                }
            ],
            "payable": false,
            "stateMutability": "view",
            "type": "function"
        },
        {
            "constant": true,
            "inputs": [],
            "name": "getInitializationBlock",
            "outputs": [
                {
                    "name": "",
                    "type": "uint256"
                }
            ],
            "payable": false,
            "stateMutability": "view",
            "type": "function"
        },
        {
            "constant": false,
            "inputs": [
                {
                    "name": "_token",
                    "type": "address"
                }
            ],
            "name": "transferToVault",
            "outputs": [],
            "payable": false,
            "stateMutability": "nonpayable",
            "type": "function"
        },
        {
            "constant": true,
            "inputs": [
                {
                    "name": "_sender",
                    "type": "address"
                },
                {
                    "name": "_role",
                    "type": "bytes32"
                },
                {
                    "name": "_params",
                    "type": "uint256[]"
                }
            ],
            "name": "canPerform",
            "outputs": [
                {
                    "name": "",
                    "type": "bool"
                }
            ],
            "payable": false,
            "stateMutability": "view",
            "type": "function"
        },
        {
            "constant": true,
            "inputs": [],
            "name": "getEVMScriptRegistry",
            "outputs": [
                {
                    "name": "",
                    "type": "address"
                }
            ],
            "payable": false,
            "stateMutability": "view",
            "type": "function"
        },
        {
            "constant": true,
            "inputs": [],
            "name": "kernel",
            "outputs": [
                {
                    "name": "",
                    "type": "address"
                }
            ],
            "payable": false,
            "stateMutability": "view",
            "type": "function"
        },
        {
            "constant": true,
            "inputs": [],
            "name": "isPetrified",
            "outputs": [
                {
                    "name": "",
                    "type": "bool"
                }
            ],
            "payable": false,
            "stateMutability": "view",
            "type": "function"
        },
        {
            "payable": true,
            "stateMutability": "payable",
            "type": "fallback"
        },
        {
            "anonymous": false,
            "inputs": [
                {
                    "indexed": true,
                    "name": "token",
                    "type": "address"
                },
                {
                    "indexed": true,
                    "name": "to",
                    "type": "address"
                },
                {
                    "indexed": false,
                    "name": "amount",
                    "type": "uint256"
                }
            ],
            "name": "VaultTransfer",
            "type": "event"
        },
        {
            "anonymous": false,
            "inputs": [
                {
                    "indexed": true,
                    "name": "token",
                    "type": "address"
                },
                {
                    "indexed": true,
                    "name": "sender",
                    "type": "address"
                },
                {
                    "indexed": false,
                    "name": "amount",
                    "type": "uint256"
                }
            ],
            "name": "VaultDeposit",
            "type": "event"
        },
        {
            "anonymous": false,
            "inputs": [
                {
                    "indexed": true,
                    "name": "executor",
                    "type": "address"
                },
                {
                    "indexed": false,
                    "name": "script",
                    "type": "bytes"
                },
                {
                    "indexed": false,
                    "name": "input",
                    "type": "bytes"
                },
                {
                    "indexed": false,
                    "name": "returnData",
                    "type": "bytes"
                }
            ],
            "name": "ScriptResult",
            "type": "event"
        },
        {
            "anonymous": false,
            "inputs": [
                {
                    "indexed": true,
                    "name": "vault",
                    "type": "address"
                },
                {
                    "indexed": true,
                    "name": "token",
                    "type": "address"
                },
                {
                    "indexed": false,
                    "name": "amount",
                    "type": "uint256"
                }
            ],
            "name": "RecoverToVault",
            "type": "event"
        },
        {
            "constant": false,
            "inputs": [],
            "name": "initialize",
            "outputs": [],
            "payable": false,
            "stateMutability": "nonpayable",
            "type": "function"
        },
        {
            "constant": false,
            "inputs": [
                {
                    "name": "_token",
                    "type": "address"
                },
                {
                    "name": "_value",
                    "type": "uint256"
                }
            ],
            "name": "deposit",
            "outputs": [],
            "payable": true,
            "stateMutability": "payable",
            "type": "function"
        },
        {
            "constant": false,
            "inputs": [
                {
                    "name": "_token",
                    "type": "address"
                },
                {
                    "name": "_to",
                    "type": "address"
                },
                {
                    "name": "_value",
                    "type": "uint256"
                }
            ],
            "name": "transfer",
            "outputs": [],
            "payable": false,
            "stateMutability": "nonpayable",
            "type": "function"
        },
        {
            "constant": true,
            "inputs": [
                {
                    "name": "_token",
                    "type": "address"
                }
            ],
            "name": "balance",
            "outputs": [
                {
                    "name": "",
                    "type": "uint256"
                }
            ],
            "payable": false,
            "stateMutability": "view",
            "type": "function"
        },
        {
            "constant": true,
            "inputs": [
                {
                    "name": "",
                    "type": "address"
                }
            ],
            "name": "allowRecoverability",
            "outputs": [
                {
                    "name": "",
                    "type": "bool"
                }
            ],
            "payable": false,
            "stateMutability": "view",
            "type": "function"
        }
    ],
    "bytecode": "0x6080604052620000176401000000006200001d810204565b6200023b565b6200003064010000000062000125810204565b60408051808201909152601881527f494e49545f414c52454144595f494e495449414c495a45440000000000000000602082015290156200010c576040517f08c379a00000000000000000000000000000000000000000000000000000000081526004018080602001828103825283818151815260200191508051906020019080838360005b83811015620000d0578181015183820152602001620000b6565b50505050905090810190601f168015620000fe5780820380516001836020036101000a031916815260200191505b509250505060405180910390fd5b506200012360001964010000000062000154810204565b565b60006200014f60008051602062001df8833981519152640100000000620017176200023382021704565b905090565b6200016764010000000062000125810204565b60408051808201909152601881527f494e49545f414c52454144595f494e495449414c495a454400000000000000006020820152901562000206576040517f08c379a000000000000000000000000000000000000000000000000000000000815260040180806020018281038252838181518152602001915080519060200190808383600083811015620000d0578181015183820152602001620000b6565b506200023060008051602062001df88339815191528264010000000062001ad36200023782021704565b50565b5490565b9055565b611bad806200024b6000396000f3006080604052600436106100f05763ffffffff7c01000000000000000000000000000000000000000000000000000000006000350416630803fac0811461027c578063206b60f9146102a55780632914b9bd146102cc57806332f0a3b51461034e57806347e7ef241461036357806348a0c8dd146103875780637e7db6e11461039c57806380afdea8146103ca5780638129fc1c146103df5780638b3dd749146103f45780639d4941d814610409578063a1658fad14610437578063a479e508146104ab578063beabacc8146104c0578063d4aae0c4146104f7578063de4796ed1461050c578063e3d670d714610521575b6100f861054f565b60408051808201909152601481527f494e49545f4e4f545f494e495449414c495a454400000000000000000000000060208201529015156101d1576040517f08c379a00000000000000000000000000000000000000000000000000000000081526004018080602001828103825283818151815260200191508051906020019080838360005b8381101561019657818101518382015260200161017e565b50505050905090810190601f1680156101c35780820380516001836020036101000a031916815260200191505b509250505060405180910390fd5b5060408051808201909152601381527f5641554c545f444154415f4e4f4e5f5a45524f000000000000000000000000006020820152361561026e576040517f08c379a00000000000000000000000000000000000000000000000000000000081526004018080602001828103825283818151815260200191508051906020019080838360008381101561019657818101518382015260200161017e565b5061027a600034610578565b005b34801561028857600080fd5b5061029161054f565b604080519115158252519081900360200190f35b3480156102b157600080fd5b506102ba610897565b60408051918252519081900360200190f35b3480156102d857600080fd5b506040805160206004803580820135601f81018490048402850184019095528484526103259436949293602493928401919081908401838280828437509497506108cc9650505050505050565b6040805173ffffffffffffffffffffffffffffffffffffffff9092168252519081900360200190f35b34801561035a57600080fd5b506103256109da565b61027a73ffffffffffffffffffffffffffffffffffffffff60043516602435610a78565b34801561039357600080fd5b50610291610b2c565b3480156103a857600080fd5b5061029173ffffffffffffffffffffffffffffffffffffffff60043516610b5c565b3480156103d657600080fd5b506102ba610b62565b3480156103eb57600080fd5b5061027a610b8d565b34801561040057600080fd5b506102ba610c46565b34801561041557600080fd5b5061027a73ffffffffffffffffffffffffffffffffffffffff60043516610c71565b34801561044357600080fd5b50604080516020600460443581810135838102808601850190965280855261029195833573ffffffffffffffffffffffffffffffffffffffff16956024803596369695606495939492019291829185019084908082843750949750610f939650505050505050565b3480156104b757600080fd5b50610325611123565b3480156104cc57600080fd5b5061027a73ffffffffffffffffffffffffffffffffffffffff60043581169060243516604435611217565b34801561050357600080fd5b506103256115c2565b34801561051857600080fd5b506102916115ed565b34801561052d57600080fd5b506102ba73ffffffffffffffffffffffffffffffffffffffff6004351661161e565b60008061055a610c46565b9050801580159061057257508061056f611672565b10155b91505090565b610580610b2c565b60408051808201909152601581527f5641554c545f4e4f545f4445504f53495441424c450000000000000000000000602082015290151561061d576040517f08c379a00000000000000000000000000000000000000000000000000000000081526004018080602001828103825283818151815260200191508051906020019080838360008381101561019657818101518382015260200161017e565b5060408051808201909152601881527f5641554c545f4445504f5349545f56414c55455f5a45524f00000000000000006020820152600082116106bc576040517f08c379a00000000000000000000000000000000000000000000000000000000081526004018080602001828103825283818151815260200191508051906020019080838360008381101561019657818101518382015260200161017e565b5073ffffffffffffffffffffffffffffffffffffffff8216151561077d5760408051808201909152601481527f5641554c545f56414c55455f4d49534d415443480000000000000000000000006020820152348214610777576040517f08c379a00000000000000000000000000000000000000000000000000000000081526004018080602001828103825283818151815260200191508051906020019080838360008381101561019657818101518382015260200161017e565b50610846565b6107a573ffffffffffffffffffffffffffffffffffffffff831633308463ffffffff61167616565b6040805190810160405280602081526020017f5641554c545f544f4b454e5f5452414e534645525f46524f4d5f524556455254815250901515610844576040517f08c379a00000000000000000000000000000000000000000000000000000000081526004018080602001828103825283818151815260200191508051906020019080838360008381101561019657818101518382015260200161017e565b505b604080518281529051339173ffffffffffffffffffffffffffffffffffffffff8516917f2790b90165fd3973ad7edde4eca71b4f8808dd4857a2a3a3e8ae5642a5cb196e9181900360200190a35050565b604080517f5452414e534645525f524f4c45000000000000000000000000000000000000008152905190819003600d01902081565b60006108d6611123565b73ffffffffffffffffffffffffffffffffffffffff166304bf2a7f836040518263ffffffff167c01000000000000000000000000000000000000000000000000000000000281526004018080602001828103825283818151815260200191508051906020019080838360005b8381101561095a578181015183820152602001610942565b50505050905090810190601f1680156109875780820380516001836020036101000a031916815260200191505b5092505050602060405180830381600087803b1580156109a657600080fd5b505af11580156109ba573d6000803e3d6000fd5b505050506040513d60208110156109d057600080fd5b505190505b919050565b60006109e46115c2565b73ffffffffffffffffffffffffffffffffffffffff166332f0a3b56040518163ffffffff167c0100000000000000000000000000000000000000000000000000000000028152600401602060405180830381600087803b158015610a4757600080fd5b505af1158015610a5b573d6000803e3d6000fd5b505050506040513d6020811015610a7157600080fd5b5051905090565b610a8061054f565b60408051808201909152601481527f494e49545f4e4f545f494e495449414c495a45440000000000000000000000006020820152901515610b1d576040517f08c379a00000000000000000000000000000000000000000000000000000000081526004018080602001828103825283818151815260200191508051906020019080838360008381101561019657818101518382015260200161017e565b50610b288282610578565b5050565b6000610b577f665fd576fbbe6f247aff98f5c94a561e3f71ec2d3c988d56f12d342396c50cea611717565b905090565b50600090565b6000610b577fd625496217aa6a3453eecb9c3489dc5a53e6c67b444329ea2b2cbc9ff547639b611717565b610b95610c46565b60408051808201909152601881527f494e49545f414c52454144595f494e495449414c495a4544000000000000000060208201529015610c31576040517f08c379a00000000000000000000000000000000000000000000000000000000081526004018080602001828103825283818151815260200191508051906020019080838360008381101561019657818101518382015260200161017e565b50610c3a61171b565b610c4460016117f8565b565b6000610b577febb05b386a8d34882b8711d156f463690983dc47815980fb82aeeff1aa43579e611717565b6000806000610c7f84610b5c565b60408051808201909152601281527f5245434f5645525f444953414c4c4f57454400000000000000000000000000006020820152901515610d1c576040517f08c379a00000000000000000000000000000000000000000000000000000000081526004018080602001828103825283818151815260200191508051906020019080838360008381101561019657818101518382015260200161017e565b50610d256109da565b9250610d308361182f565b60408051808201909152601a81527f5245434f5645525f5641554c545f4e4f545f434f4e54524143540000000000006020820152901515610dcd576040517f08c379a00000000000000000000000000000000000000000000000000000000081526004018080602001828103825283818151815260200191508051906020019080838360008381101561019657818101518382015260200161017e565b5073ffffffffffffffffffffffffffffffffffffffff84161515610e38576040513031925073ffffffffffffffffffffffffffffffffffffffff84169083156108fc029084906000818181858888f19350505050158015610e32573d6000803e3d6000fd5b50610f28565b5082610e6073ffffffffffffffffffffffffffffffffffffffff82163063ffffffff61186916565b9150610e8973ffffffffffffffffffffffffffffffffffffffff8216848463ffffffff6119a216565b60408051808201909152601d81527f5245434f5645525f544f4b454e5f5452414e534645525f4641494c45440000006020820152901515610f26576040517f08c379a00000000000000000000000000000000000000000000000000000000081526004018080602001828103825283818151815260200191508051906020019080838360008381101561019657818101518382015260200161017e565b505b8373ffffffffffffffffffffffffffffffffffffffff168373ffffffffffffffffffffffffffffffffffffffff167f596caf56044b55fb8c4ca640089bbc2b63cae3e978b851f5745cbb7c5b288e02846040518082815260200191505060405180910390a350505050565b600080610f9e61054f565b1515610fad576000915061111b565b610fb56115c2565b905073ffffffffffffffffffffffffffffffffffffffff81161515610fdd576000915061111b565b8073ffffffffffffffffffffffffffffffffffffffff1663fdef910686308761100588611a3a565b6040517c010000000000000000000000000000000000000000000000000000000063ffffffff871602815273ffffffffffffffffffffffffffffffffffffffff808616600483019081529085166024830152604482018490526080606483019081528351608484015283519192909160a490910190602085019080838360005b8381101561109d578181015183820152602001611085565b50505050905090810190601f1680156110ca5780820380516001836020036101000a031916815260200191505b5095505050505050602060405180830381600087803b1580156110ec57600080fd5b505af1158015611100573d6000803e3d6000fd5b505050506040513d602081101561111657600080fd5b505191505b509392505050565b60008061112e6115c2565b604080517fbe00bbd80000000000000000000000000000000000000000000000000000000081527fd6f028ca0e8edb4a8c9757ca4fdccab25fa1e0317da1188108f7d2dee14902fb60048201527fddbcfd564f642ab5627cf68b9b7d374fb4f8a36e941a75d89c87998cef03bd616024820152905173ffffffffffffffffffffffffffffffffffffffff929092169163be00bbd8916044808201926020929091908290030181600087803b1580156111e557600080fd5b505af11580156111f9573d6000803e3d6000fd5b505050506040513d602081101561120f57600080fd5b505192915050565b604080517f5452414e534645525f524f4c45000000000000000000000000000000000000008152905190819003600d019020611254848484611a44565b61125f338383610f93565b60408051808201909152600f81527f4150505f415554485f4641494c4544000000000000000000000000000000000060208201529015156112fc576040517f08c379a00000000000000000000000000000000000000000000000000000000081526004018080602001828103825283818151815260200191508051906020019080838360008381101561019657818101518382015260200161017e565b5060408051808201909152601981527f5641554c545f5452414e534645525f56414c55455f5a45524f0000000000000060208201526000841161139b576040517f08c379a00000000000000000000000000000000000000000000000000000000081526004018080602001828103825283818151815260200191508051906020019080838360008381101561019657818101518382015260200161017e565b5073ffffffffffffffffffffffffffffffffffffffff851615156114905760405173ffffffffffffffffffffffffffffffffffffffff85169084156108fc029085906000818181858888f193505050506040805190810160405280601381526020017f5641554c545f53454e445f52455645525445440000000000000000000000000081525090151561148a576040517f08c379a00000000000000000000000000000000000000000000000000000000081526004018080602001828103825283818151815260200191508051906020019080838360008381101561019657818101518382015260200161017e565b50611556565b6114b773ffffffffffffffffffffffffffffffffffffffff8616858563ffffffff6119a216565b60408051808201909152601d81527f5641554c545f544f4b454e5f5452414e534645525f52455645525445440000006020820152901515611554576040517f08c379a00000000000000000000000000000000000000000000000000000000081526004018080602001828103825283818151815260200191508051906020019080838360008381101561019657818101518382015260200161017e565b505b8373ffffffffffffffffffffffffffffffffffffffff168573ffffffffffffffffffffffffffffffffffffffff167f239e7f6cdac8fb35a788a46b431b54da87de90b82448a2c294be5e92a6e579af856040518082815260200191505060405180910390a35050505050565b6000610b577f4172f0f7d2289153072b0a6ca36959e0cbe2efc3afe50fc81636caa96338137b611717565b60007fffffffffffffffffffffffffffffffffffffffffffffffffffffffffffffffff611618610c46565b14905090565b600073ffffffffffffffffffffffffffffffffffffffff82161515611645575030316109d5565b61166b73ffffffffffffffffffffffffffffffffffffffff83163063ffffffff61186916565b90506109d5565b4390565b6040805173ffffffffffffffffffffffffffffffffffffffff85811660248301528416604482015260648082018490528251808303909101815260849091019091526020810180517bffffffffffffffffffffffffffffffffffffffffffffffffffffffff167f23b872dd0000000000000000000000000000000000000000000000000000000017905260009061170d8682611a85565b9695505050505050565b5490565b611723610c46565b60408051808201909152601881527f494e49545f414c52454144595f494e495449414c495a45440000000000000000602082015290156117bf576040517f08c379a00000000000000000000000000000000000000000000000000000000081526004018080602001828103825283818151815260200191508051906020019080838360008381101561019657818101518382015260200161017e565b50610c446117cb611672565b7febb05b386a8d34882b8711d156f463690983dc47815980fb82aeeff1aa43579e9063ffffffff611ad316565b6118287f665fd576fbbe6f247aff98f5c94a561e3f71ec2d3c988d56f12d342396c50cea8263ffffffff611ad316565b50565b5490565b60008073ffffffffffffffffffffffffffffffffffffffff831615156118585760009150611863565b823b90506000811191505b50919050565b6040805173ffffffffffffffffffffffffffffffffffffffff83166024808301919091528251808303909101815260449091019091526020810180517bffffffffffffffffffffffffffffffffffffffffffffffffffffffff167f70a082310000000000000000000000000000000000000000000000000000000017905260009081806118f68684611ad7565b60408051808201909152601c81527f534146455f4552435f32305f42414c414e43455f52455645525445440000000060208201529193509150821515611998576040517f08c379a00000000000000000000000000000000000000000000000000000000081526004018080602001828103825283818151815260200191508051906020019080838360008381101561019657818101518382015260200161017e565b5095945050505050565b6040805173ffffffffffffffffffffffffffffffffffffffff8416602482015260448082018490528251808303909101815260649091019091526020810180517bffffffffffffffffffffffffffffffffffffffffffffffffffffffff167fa9059cbb00000000000000000000000000000000000000000000000000000000179052600090611a318582611a85565b95945050505050565b8051602002815290565b6060611a7d8473ffffffffffffffffffffffffffffffffffffffff168473ffffffffffffffffffffffffffffffffffffffff1684611b08565b949350505050565b6000806040516020818551602087016000895af16000811115611ac9573d8015611ab65760208114611abf57611ac7565b60019350611ac7565b600183511493505b505b5090949350505050565b9055565b6000806000806040516020818751602089018a5afa92506000831115611afc57805191505b50909590945092505050565b6040805160038082526080820190925260609160208201838038833901905050905083816000815181101515611b3a57fe5b602090810290910101528051839082906001908110611b5557fe5b602090810290910101528051829082906002908110611b7057fe5b6020908102909101015293925050505600a165627a7a72305820e01034434409d0fa5e4d9c4ceb9d672281181c026b7c3b0fb6e09eb3b4218bfb0029ebb05b386a8d34882b8711d156f463690983dc47815980fb82aeeff1aa43579e",
    "source": "pragma solidity 0.4.24;\n\nimport \"@aragon/os/contracts/apps/AragonApp.sol\";\nimport \"@aragon/os/contracts/common/DepositableStorage.sol\";\nimport \"@aragon/os/contracts/common/EtherTokenConstant.sol\";\nimport \"@aragon/os/contracts/common/SafeERC20.sol\";\nimport \"@aragon/os/contracts/lib/token/ERC20.sol\";\n\n\ncontract Vault is EtherTokenConstant, AragonApp, DepositableStorage {\n    using SafeERC20 for ERC20;\n\n    bytes32 public constant TRANSFER_ROLE = keccak256(\"TRANSFER_ROLE\");\n\n    string private constant ERROR_DATA_NON_ZERO = \"VAULT_DATA_NON_ZERO\";\n    string private constant ERROR_NOT_DEPOSITABLE = \"VAULT_NOT_DEPOSITABLE\";\n    string private constant ERROR_DEPOSIT_VALUE_ZERO = \"VAULT_DEPOSIT_VALUE_ZERO\";\n    string private constant ERROR_TRANSFER_VALUE_ZERO = \"VAULT_TRANSFER_VALUE_ZERO\";\n    string private constant ERROR_SEND_REVERTED = \"VAULT_SEND_REVERTED\";\n    string private constant ERROR_VALUE_MISMATCH = \"VAULT_VALUE_MISMATCH\";\n    string private constant ERROR_TOKEN_TRANSFER_FROM_REVERTED = \"VAULT_TOKEN_TRANSFER_FROM_REVERT\";\n    string private constant ERROR_TOKEN_TRANSFER_REVERTED = \"VAULT_TOKEN_TRANSFER_REVERTED\";\n\n    event VaultTransfer(address indexed token, address indexed to, uint256 amount);\n    event VaultDeposit(address indexed token, address indexed sender, uint256 amount);\n\n    /**\n    * @dev On a normal send() or transfer() this fallback is never executed as it will be\n    *      intercepted by the Proxy (see aragonOS#281)\n    */\n    function () external payable isInitialized {\n        require(msg.data.length == 0, ERROR_DATA_NON_ZERO);\n        _deposit(ETH, msg.value);\n    }\n\n    /**\n    * @notice Initialize Vault app\n    * @dev As an AragonApp it needs to be initialized in order for roles (`auth` and `authP`) to work\n    */\n    function initialize() external onlyInit {\n        initialized();\n        setDepositable(true);\n    }\n\n    /**\n    * @notice Deposit `_value` `_token` to the vault\n    * @param _token Address of the token being transferred\n    * @param _value Amount of tokens being transferred\n    */\n    function deposit(address _token, uint256 _value) external payable isInitialized {\n        _deposit(_token, _value);\n    }\n\n    /**\n    * @notice Transfer `_value` `_token` from the Vault to `_to`\n    * @param _token Address of the token being transferred\n    * @param _to Address of the recipient of tokens\n    * @param _value Amount of tokens being transferred\n    */\n    /* solium-disable-next-line function-order */\n    function transfer(address _token, address _to, uint256 _value)\n        external\n        authP(TRANSFER_ROLE, arr(_token, _to, _value))\n    {\n        require(_value > 0, ERROR_TRANSFER_VALUE_ZERO);\n\n        if (_token == ETH) {\n            require(_to.send(_value), ERROR_SEND_REVERTED);\n        } else {\n            require(ERC20(_token).safeTransfer(_to, _value), ERROR_TOKEN_TRANSFER_REVERTED);\n        }\n\n        emit VaultTransfer(_token, _to, _value);\n    }\n\n    function balance(address _token) public view returns (uint256) {\n        if (_token == ETH) {\n            return address(this).balance;\n        } else {\n            return ERC20(_token).staticBalanceOf(address(this));\n        }\n    }\n\n    /**\n    * @dev Disable recovery escape hatch, as it could be used\n    *      maliciously to transfer funds away from the vault\n    */\n    function allowRecoverability(address) public view returns (bool) {\n        return false;\n    }\n\n    function _deposit(address _token, uint256 _value) internal {\n        require(isDepositable(), ERROR_NOT_DEPOSITABLE);\n        require(_value > 0, ERROR_DEPOSIT_VALUE_ZERO);\n\n        if (_token == ETH) {\n            // Deposit is implicit in this case\n            require(msg.value == _value, ERROR_VALUE_MISMATCH);\n        } else {\n            require(\n                ERC20(_token).safeTransferFrom(msg.sender, address(this), _value),\n                ERROR_TOKEN_TRANSFER_FROM_REVERTED\n            );\n        }\n\n        emit VaultDeposit(_token, msg.sender, _value);\n    }\n}\n",
    "sourcePath": "@aragon/apps-vault/contracts/Vault.sol",
    "compiler": {
        "name": "solc",
        "version": "0.4.24+commit.e67f0147.Emscripten.clang"
    },
    "schemaVersion": "2.0.1",
    "updatedAt": "2020-08-30T16:48:34.412Z"
}