{
    "_format": "hh-sol-artifact-1",
    "contractName": "Core",
    "sourceName": "contracts/Core.sol",
    "abi": [
        {
            "inputs": [
                {
                    "internalType": "address",
                    "name": "_bBTC",
                    "type": "address"
                }
            ],
            "stateMutability": "nonpayable",
            "type": "constructor"
        },
        {
            "anonymous": false,
            "inputs": [
                {
                    "indexed": false,
                    "internalType": "uint256",
                    "name": "amount",
                    "type": "uint256"
                }
            ],
            "name": "FeeCollected",
            "type": "event"
        },
        {
            "anonymous": false,
            "inputs": [
                {
                    "indexed": true,
                    "internalType": "address",
                    "name": "previousOwner",
                    "type": "address"
                },
                {
                    "indexed": true,
                    "internalType": "address",
                    "name": "newOwner",
                    "type": "address"
                }
            ],
            "name": "OwnershipTransferred",
            "type": "event"
        },
        {
            "anonymous": false,
            "inputs": [
                {
                    "indexed": true,
                    "internalType": "address",
                    "name": "peak",
                    "type": "address"
                }
            ],
            "name": "PeakWhitelisted",
            "type": "event"
        },
        {
            "inputs": [],
            "name": "accumulatedFee",
            "outputs": [
                {
                    "internalType": "uint256",
                    "name": "",
                    "type": "uint256"
                }
            ],
            "stateMutability": "view",
            "type": "function"
        },
        {
            "inputs": [],
            "name": "bBTC",
            "outputs": [
                {
                    "internalType": "contract IbBTC",
                    "name": "",
                    "type": "address"
                }
            ],
            "stateMutability": "view",
            "type": "function"
        },
        {
            "inputs": [
                {
                    "internalType": "uint256",
                    "name": "bBtc",
                    "type": "uint256"
                }
            ],
            "name": "bBtcToBtc",
            "outputs": [
                {
                    "internalType": "uint256",
                    "name": "btc",
                    "type": "uint256"
                },
                {
                    "internalType": "uint256",
                    "name": "fee",
                    "type": "uint256"
                }
            ],
            "stateMutability": "view",
            "type": "function"
        },
        {
            "inputs": [
                {
                    "internalType": "uint256",
                    "name": "btc",
                    "type": "uint256"
                }
            ],
            "name": "btcToBbtc",
            "outputs": [
                {
                    "internalType": "uint256",
                    "name": "bBtc",
                    "type": "uint256"
                },
                {
                    "internalType": "uint256",
                    "name": "fee",
                    "type": "uint256"
                }
            ],
            "stateMutability": "view",
            "type": "function"
        },
        {
            "inputs": [],
            "name": "collectFee",
            "outputs": [],
            "stateMutability": "nonpayable",
            "type": "function"
        },
        {
            "inputs": [],
            "name": "feeSink",
            "outputs": [
                {
                    "internalType": "address",
                    "name": "",
                    "type": "address"
                }
            ],
            "stateMutability": "view",
            "type": "function"
        },
        {
            "inputs": [],
            "name": "guestList",
            "outputs": [
                {
                    "internalType": "contract BadgerGuestListAPI",
                    "name": "",
                    "type": "address"
                }
            ],
            "stateMutability": "view",
            "type": "function"
        },
        {
            "inputs": [
                {
                    "internalType": "uint256",
                    "name": "btc",
                    "type": "uint256"
                },
                {
                    "internalType": "address",
                    "name": "account",
                    "type": "address"
                },
                {
                    "internalType": "bytes32[]",
                    "name": "merkleProof",
                    "type": "bytes32[]"
                }
            ],
            "name": "mint",
            "outputs": [
                {
                    "internalType": "uint256",
                    "name": "",
                    "type": "uint256"
                }
            ],
            "stateMutability": "nonpayable",
            "type": "function"
        },
        {
            "inputs": [],
            "name": "mintFee",
            "outputs": [
                {
                    "internalType": "uint256",
                    "name": "",
                    "type": "uint256"
                }
            ],
            "stateMutability": "view",
            "type": "function"
        },
        {
            "inputs": [],
            "name": "owner",
            "outputs": [
                {
                    "internalType": "address",
                    "name": "_owner",
                    "type": "address"
                }
            ],
            "stateMutability": "view",
            "type": "function"
        },
        {
            "inputs": [
                {
                    "internalType": "uint256",
                    "name": "",
                    "type": "uint256"
                }
            ],
            "name": "peakAddresses",
            "outputs": [
                {
                    "internalType": "address",
                    "name": "",
                    "type": "address"
                }
            ],
            "stateMutability": "view",
            "type": "function"
        },
        {
            "inputs": [
                {
                    "internalType": "address",
                    "name": "",
                    "type": "address"
                }
            ],
            "name": "peaks",
            "outputs": [
                {
                    "internalType": "enum Core.PeakState",
                    "name": "",
                    "type": "uint8"
                }
            ],
            "stateMutability": "view",
            "type": "function"
        },
        {
            "inputs": [],
            "name": "pricePerShare",
            "outputs": [
                {
                    "internalType": "uint256",
                    "name": "",
                    "type": "uint256"
                }
            ],
            "stateMutability": "view",
            "type": "function"
        },
        {
            "inputs": [
                {
                    "internalType": "uint256",
                    "name": "bBtc",
                    "type": "uint256"
                },
                {
                    "internalType": "address",
                    "name": "account",
                    "type": "address"
                }
            ],
            "name": "redeem",
            "outputs": [
                {
                    "internalType": "uint256",
                    "name": "",
                    "type": "uint256"
                }
            ],
            "stateMutability": "nonpayable",
            "type": "function"
        },
        {
            "inputs": [],
            "name": "redeemFee",
            "outputs": [
                {
                    "internalType": "uint256",
                    "name": "",
                    "type": "uint256"
                }
            ],
            "stateMutability": "view",
            "type": "function"
        },
        {
            "inputs": [
                {
                    "internalType": "uint256",
                    "name": "_mintFee",
                    "type": "uint256"
                },
                {
                    "internalType": "uint256",
                    "name": "_redeemFee",
                    "type": "uint256"
                },
                {
                    "internalType": "address",
                    "name": "_feeSink",
                    "type": "address"
                }
            ],
            "name": "setConfig",
            "outputs": [],
            "stateMutability": "nonpayable",
            "type": "function"
        },
        {
            "inputs": [
                {
                    "internalType": "address",
                    "name": "_guestList",
                    "type": "address"
                }
            ],
            "name": "setGuestList",
            "outputs": [],
            "stateMutability": "nonpayable",
            "type": "function"
        },
        {
            "inputs": [
                {
                    "internalType": "address",
                    "name": "peak",
                    "type": "address"
                },
                {
                    "internalType": "enum Core.PeakState",
                    "name": "state",
                    "type": "uint8"
                }
            ],
            "name": "setPeakStatus",
            "outputs": [],
            "stateMutability": "nonpayable",
            "type": "function"
        },
        {
            "inputs": [],
            "name": "totalSystemAssets",
            "outputs": [
                {
                    "internalType": "uint256",
                    "name": "totalAssets",
                    "type": "uint256"
                }
            ],
            "stateMutability": "view",
            "type": "function"
        },
        {
            "inputs": [
                {
                    "internalType": "address",
                    "name": "newOwner",
                    "type": "address"
                }
            ],
            "name": "transferOwnership",
            "outputs": [],
            "stateMutability": "nonpayable",
            "type": "function"
        },
        {
            "inputs": [
                {
                    "internalType": "address",
                    "name": "peak",
                    "type": "address"
                }
            ],
            "name": "whitelistPeak",
            "outputs": [],
            "stateMutability": "nonpayable",
            "type": "function"
        }
    ],
    "bytecode": "0x60a06040523480156200001157600080fd5b506040516200250538038062002505833981810160405260208110156200003757600080fd5b810190808051906020019092919050505062000059336200013b60201b60201c565b600073ffffffffffffffffffffffffffffffffffffffff168173ffffffffffffffffffffffffffffffffffffffff161415620000fd576040517f08c379a000000000000000000000000000000000000000000000000000000000815260040180806020018281038252600c8152602001807f4e554c4c5f41444452455353000000000000000000000000000000000000000081525060200191505060405180910390fd5b8073ffffffffffffffffffffffffffffffffffffffff1660808173ffffffffffffffffffffffffffffffffffffffff1660601b8152505050620002b0565b600073ffffffffffffffffffffffffffffffffffffffff168173ffffffffffffffffffffffffffffffffffffffff161415620001c3576040517f08c379a000000000000000000000000000000000000000000000000000000000815260040180806020018281038252602b815260200180620024da602b913960400191505060405180910390fd5b8073ffffffffffffffffffffffffffffffffffffffff16620001ea6200026d60201b60201c565b73ffffffffffffffffffffffffffffffffffffffff167f8be0079c531659141344cd1fd0a4f28419497f9722a3daafe3b4186f6b6457e060405160405180910390a3600060405180807f70726f78792e6f776e6572000000000000000000000000000000000000000000815250600b019050604051809103902090508181555050565b60008060405180807f70726f78792e6f776e6572000000000000000000000000000000000000000000815250600b01905060405180910390209050805491505090565b60805160601c6121f3620002e760003980610d4b528061102d528061160a52806117265280611a8d5280611bfb52506121f36000f3fe608060405234801561001057600080fd5b50600436106101375760003560e01c80637bde82f2116100b8578063b8038b3e1161007c578063b8038b3e146105a1578063c5f22f33146105f9578063d4d5d32a14610643578063f0db6adf1461064d578063f2fde38b14610696578063f8ce3164146106da57610137565b80637bde82f21461044b5780638da5cb5b146104ad578063965fa21e146104f757806399530b0614610515578063a8ad65e91461053357610137565b80634a6b9899116100ff5780634a6b9899146102bd5780634b38474d1461030e5780634c31990a146103585780636db7ec7d146103a15780637aae1a9b1461040757610137565b80630b5b78eb1461013c57806313966db51461018057806316ca25181461019e57806346d55875146101bc57806347c699d114610206575b600080fd5b61017e6004803603602081101561015257600080fd5b81019080803573ffffffffffffffffffffffffffffffffffffffff1690602001909291905050506106f8565b005b6101886107e3565b6040518082815260200191505060405180910390f35b6101a66107e9565b6040518082815260200191505060405180910390f35b6101c46109c9565b604051808273ffffffffffffffffffffffffffffffffffffffff1673ffffffffffffffffffffffffffffffffffffffff16815260200191505060405180910390f35b6102a76004803603606081101561021c57600080fd5b8101908080359060200190929190803573ffffffffffffffffffffffffffffffffffffffff1690602001909291908035906020019064010000000081111561026357600080fd5b82018360208201111561027557600080fd5b8035906020019184602083028401116401000000008311171561029757600080fd5b90919293919293905050506109ee565b6040518082815260200191505060405180910390f35b61030c600480360360408110156102d357600080fd5b81019080803573ffffffffffffffffffffffffffffffffffffffff169060200190929190803560ff169060200190929190505050610e15565b005b610316610ffa565b604051808273ffffffffffffffffffffffffffffffffffffffff1673ffffffffffffffffffffffffffffffffffffffff16815260200191505060405180910390f35b6103846004803603602081101561036e57600080fd5b8101908080359060200190929190505050611020565b604051808381526020018281526020019250505060405180910390f35b6103e3600480360360208110156103b757600080fd5b81019080803573ffffffffffffffffffffffffffffffffffffffff169060200190929190505050611162565b604051808260028111156103f357fe5b60ff16815260200191505060405180910390f35b6104496004803603602081101561041d57600080fd5b81019080803573ffffffffffffffffffffffffffffffffffffffff169060200190929190505050611182565b005b6104976004803603604081101561046157600080fd5b8101908080359060200190929190803573ffffffffffffffffffffffffffffffffffffffff16906020019092919050505061148d565b6040518082815260200191505060405180910390f35b6104b56116d2565b604051808273ffffffffffffffffffffffffffffffffffffffff1673ffffffffffffffffffffffffffffffffffffffff16815260200191505060405180910390f35b6104ff611715565b6040518082815260200191505060405180910390f35b61051d61171b565b6040518082815260200191505060405180910390f35b61055f6004803603602081101561054957600080fd5b810190808035906020019092919050505061182a565b604051808273ffffffffffffffffffffffffffffffffffffffff1673ffffffffffffffffffffffffffffffffffffffff16815260200191505060405180910390f35b6105f7600480360360608110156105b757600080fd5b810190808035906020019092919080359060200190929190803573ffffffffffffffffffffffffffffffffffffffff169060200190929190505050611866565b005b610601611a8b565b604051808273ffffffffffffffffffffffffffffffffffffffff1673ffffffffffffffffffffffffffffffffffffffff16815260200191505060405180910390f35b61064b611aaf565b005b6106796004803603602081101561066357600080fd5b8101908080359060200190929190505050611d14565b604051808381526020018281526020019250505060405180910390f35b6106d8600480360360208110156106ac57600080fd5b81019080803573ffffffffffffffffffffffffffffffffffffffff169060200190929190505050611d75565b005b6106e2611e29565b6040518082815260200191505060405180910390f35b3373ffffffffffffffffffffffffffffffffffffffff166107176116d2565b73ffffffffffffffffffffffffffffffffffffffff16146107a0576040517f08c379a00000000000000000000000000000000000000000000000000000000081526004018080602001828103825260098152602001807f4e4f545f4f574e4552000000000000000000000000000000000000000000000081525060200191505060405180910390fd5b806000806101000a81548173ffffffffffffffffffffffffffffffffffffffff021916908373ffffffffffffffffffffffffffffffffffffffff16021790555050565b60045481565b60006060600280548060200260200160405190810160405280929190818152602001828054801561086f57602002820191906000526020600020905b8160009054906101000a900473ffffffffffffffffffffffffffffffffffffffff1673ffffffffffffffffffffffffffffffffffffffff1681526020019060010190808311610825575b5050505050905060008151905060008090505b818110156109c3576000600281111561089757fe5b600160008584815181106108a757fe5b602002602001015173ffffffffffffffffffffffffffffffffffffffff1673ffffffffffffffffffffffffffffffffffffffff16815260200190815260200160002060009054906101000a900460ff16600281111561090257fe5b141561090d576109b6565b6109b383828151811061091c57fe5b602002602001015173ffffffffffffffffffffffffffffffffffffffff166373acb5906040518163ffffffff1660e01b815260040160206040518083038186803b15801561096957600080fd5b505afa15801561097d573d6000803e3d6000fd5b505050506040513d602081101561099357600080fd5b810190808051906020019092919050505085611e2f90919063ffffffff16565b93505b8080600101915050610882565b50505090565b6000809054906101000a900473ffffffffffffffffffffffffffffffffffffffff1681565b6000600160028111156109fd57fe5b600160003373ffffffffffffffffffffffffffffffffffffffff1673ffffffffffffffffffffffffffffffffffffffff16815260200190815260200160002060009054906101000a900460ff166002811115610a5557fe5b14610ac8576040517f08c379a000000000000000000000000000000000000000000000000000000000815260040180806020018281038252600d8152602001807f5045414b5f494e4143544956450000000000000000000000000000000000000081525060200191505060405180910390fd5b600073ffffffffffffffffffffffffffffffffffffffff166000809054906101000a900473ffffffffffffffffffffffffffffffffffffffff1673ffffffffffffffffffffffffffffffffffffffff1614610ca8576000809054906101000a900473ffffffffffffffffffffffffffffffffffffffff1673ffffffffffffffffffffffffffffffffffffffff16631a9ee26f858786866040518563ffffffff1660e01b8152600401808573ffffffffffffffffffffffffffffffffffffffff1673ffffffffffffffffffffffffffffffffffffffff168152602001848152602001806020018281038252848482818152602001925060200280828437600081840152601f19601f8201169050808301925050509550505050505060206040518083038186803b158015610bfa57600080fd5b505afa158015610c0e573d6000803e3d6000fd5b505050506040513d6020811015610c2457600080fd5b8101908080519060200190929190505050610ca7576040517f08c379a00000000000000000000000000000000000000000000000000000000081526004018080602001828103825260188152602001807f67756573742d6c6973742d617574686f72697a6174696f6e000000000000000081525060200191505060405180910390fd5b5b600080610cb487611020565b9150915060008211610d2e576040517f08c379a000000000000000000000000000000000000000000000000000000000815260040180806020018281038252600e8152602001807f4d494e54494e475f305f6242544300000000000000000000000000000000000081525060200191505060405180910390fd5b610d4381600654611e2f90919063ffffffff16565b6006819055507f000000000000000000000000000000000000000000000000000000000000000073ffffffffffffffffffffffffffffffffffffffff166340c10f1987846040518363ffffffff1660e01b8152600401808373ffffffffffffffffffffffffffffffffffffffff1673ffffffffffffffffffffffffffffffffffffffff16815260200182815260200192505050600060405180830381600087803b158015610df057600080fd5b505af1158015610e04573d6000803e3d6000fd5b505050508192505050949350505050565b3373ffffffffffffffffffffffffffffffffffffffff16610e346116d2565b73ffffffffffffffffffffffffffffffffffffffff1614610ebd576040517f08c379a00000000000000000000000000000000000000000000000000000000081526004018080602001828103825260098152602001807f4e4f545f4f574e4552000000000000000000000000000000000000000000000081525060200191505060405180910390fd5b60006002811115610eca57fe5b600160008473ffffffffffffffffffffffffffffffffffffffff1673ffffffffffffffffffffffffffffffffffffffff16815260200190815260200160002060009054906101000a900460ff166002811115610f2257fe5b1415610f96576040517f08c379a000000000000000000000000000000000000000000000000000000000815260040180806020018281038252600f8152602001807f5065616b20697320657874696e6374000000000000000000000000000000000081525060200191505060405180910390fd5b80600160008473ffffffffffffffffffffffffffffffffffffffff1673ffffffffffffffffffffffffffffffffffffffff16815260200190815260200160002060006101000a81548160ff02191690836002811115610ff157fe5b02179055505050565b600360009054906101000a900473ffffffffffffffffffffffffffffffffffffffff1681565b60008060006110da6006547f000000000000000000000000000000000000000000000000000000000000000073ffffffffffffffffffffffffffffffffffffffff166318160ddd6040518163ffffffff1660e01b815260040160206040518083038186803b15801561109157600080fd5b505afa1580156110a5573d6000803e3d6000fd5b505050506040513d60208110156110bb57600080fd5b8101908080519060200190929190505050611e2f90919063ffffffff16565b90506000811115611118576111116110f06107e9565b6111038387611eb790919063ffffffff16565b611f3d90919063ffffffff16565b925061111c565b8392505b61114561271061113760045486611eb790919063ffffffff16565b611f3d90919063ffffffff16565b915061115a8284611fc690919063ffffffff16565b925050915091565b60016020528060005260406000206000915054906101000a900460ff1681565b3373ffffffffffffffffffffffffffffffffffffffff166111a16116d2565b73ffffffffffffffffffffffffffffffffffffffff161461122a576040517f08c379a00000000000000000000000000000000000000000000000000000000081526004018080602001828103825260098152602001807f4e4f545f4f574e4552000000000000000000000000000000000000000000000081525060200191505060405180910390fd5b6000600281111561123757fe5b600160008373ffffffffffffffffffffffffffffffffffffffff1673ffffffffffffffffffffffffffffffffffffffff16815260200190815260200160002060009054906101000a900460ff16600281111561128f57fe5b14611302576040517f08c379a000000000000000000000000000000000000000000000000000000000815260040180806020018281038252600e8152602001807f4455504c49434154455f5045414b00000000000000000000000000000000000081525060200191505060405180910390fd5b8073ffffffffffffffffffffffffffffffffffffffff166373acb5906040518163ffffffff1660e01b815260040160206040518083038186803b15801561134857600080fd5b505afa15801561135c573d6000803e3d6000fd5b505050506040513d602081101561137257600080fd5b8101908080519060200190929190505050506002819080600181540180825580915050600190039060005260206000200160009091909190916101000a81548173ffffffffffffffffffffffffffffffffffffffff021916908373ffffffffffffffffffffffffffffffffffffffff16021790555060018060008373ffffffffffffffffffffffffffffffffffffffff1673ffffffffffffffffffffffffffffffffffffffff16815260200190815260200160002060006101000a81548160ff0219169083600281111561144257fe5b02179055508073ffffffffffffffffffffffffffffffffffffffff167ff6c9e81b270bf53daf66ad44e8b6990ffd59f37bf63d421609dc748739d7db8c60405160405180910390a250565b6000808311611504576040517f08c379a00000000000000000000000000000000000000000000000000000000081526004018080602001828103825260108152602001807f52454445454d494e475f305f624254430000000000000000000000000000000081525060200191505060405180910390fd5b6000600281111561151157fe5b600160003373ffffffffffffffffffffffffffffffffffffffff1673ffffffffffffffffffffffffffffffffffffffff16815260200190815260200160002060009054906101000a900460ff16600281111561156957fe5b14156115dd576040517f08c379a000000000000000000000000000000000000000000000000000000000815260040180806020018281038252600c8152602001807f5045414b5f455854494e4354000000000000000000000000000000000000000081525060200191505060405180910390fd5b6000806115e985611d14565b9150915061160281600654611e2f90919063ffffffff16565b6006819055507f000000000000000000000000000000000000000000000000000000000000000073ffffffffffffffffffffffffffffffffffffffff16639dc29fac85876040518363ffffffff1660e01b8152600401808373ffffffffffffffffffffffffffffffffffffffff1673ffffffffffffffffffffffffffffffffffffffff16815260200182815260200192505050600060405180830381600087803b1580156116af57600080fd5b505af11580156116c3573d6000803e3d6000fd5b50505050819250505092915050565b60008060405180807f70726f78792e6f776e6572000000000000000000000000000000000000000000815250600b01905060405180910390209050805491505090565b60055481565b6000806117d36006547f000000000000000000000000000000000000000000000000000000000000000073ffffffffffffffffffffffffffffffffffffffff166318160ddd6040518163ffffffff1660e01b815260040160206040518083038186803b15801561178a57600080fd5b505afa15801561179e573d6000803e3d6000fd5b505050506040513d60208110156117b457600080fd5b8101908080519060200190929190505050611e2f90919063ffffffff16565b9050600081111561181a5761181281611804670de0b6b3a76400006117f66107e9565b611eb790919063ffffffff16565b611f3d90919063ffffffff16565b915050611827565b670de0b6b3a76400009150505b90565b6002818154811061183757fe5b906000526020600020016000915054906101000a900473ffffffffffffffffffffffffffffffffffffffff1681565b3373ffffffffffffffffffffffffffffffffffffffff166118856116d2565b73ffffffffffffffffffffffffffffffffffffffff161461190e576040517f08c379a00000000000000000000000000000000000000000000000000000000081526004018080602001828103825260098152602001807f4e4f545f4f574e4552000000000000000000000000000000000000000000000081525060200191505060405180910390fd5b612710831115801561192257506127108211155b611994576040517f08c379a00000000000000000000000000000000000000000000000000000000081526004018080602001828103825260128152602001807f494e56414c49445f504152414d4554455253000000000000000000000000000081525060200191505060405180910390fd5b600073ffffffffffffffffffffffffffffffffffffffff168173ffffffffffffffffffffffffffffffffffffffff161415611a37576040517f08c379a000000000000000000000000000000000000000000000000000000000815260040180806020018281038252600c8152602001807f4e554c4c5f41444452455353000000000000000000000000000000000000000081525060200191505060405180910390fd5b826004819055508160058190555080600360006101000a81548173ffffffffffffffffffffffffffffffffffffffff021916908373ffffffffffffffffffffffffffffffffffffffff160217905550505050565b7f000000000000000000000000000000000000000000000000000000000000000081565b600073ffffffffffffffffffffffffffffffffffffffff16600360009054906101000a900473ffffffffffffffffffffffffffffffffffffffff1673ffffffffffffffffffffffffffffffffffffffff161415611b74576040517f08c379a000000000000000000000000000000000000000000000000000000000815260040180806020018281038252600c8152602001807f4e554c4c5f41444452455353000000000000000000000000000000000000000081525060200191505060405180910390fd5b6000600654905060008111611bf1576040517f08c379a00000000000000000000000000000000000000000000000000000000081526004018080602001828103825260068152602001807f4e4f5f464545000000000000000000000000000000000000000000000000000081525060200191505060405180910390fd5b60006006819055507f000000000000000000000000000000000000000000000000000000000000000073ffffffffffffffffffffffffffffffffffffffff166340c10f19600360009054906101000a900473ffffffffffffffffffffffffffffffffffffffff16836040518363ffffffff1660e01b8152600401808373ffffffffffffffffffffffffffffffffffffffff1673ffffffffffffffffffffffffffffffffffffffff16815260200182815260200192505050600060405180830381600087803b158015611cc257600080fd5b505af1158015611cd6573d6000803e3d6000fd5b505050507fc472cb3a7a659a876494d66b3063145f279701771d6150b9329c31611ed6405c816040518082815260200191505060405180910390a150565b600080611d40612710611d3260055486611eb790919063ffffffff16565b611f3d90919063ffffffff16565b9050611d6e611d4d61171b565b611d608386611fc690919063ffffffff16565b611eb790919063ffffffff16565b9150915091565b3373ffffffffffffffffffffffffffffffffffffffff16611d946116d2565b73ffffffffffffffffffffffffffffffffffffffff1614611e1d576040517f08c379a00000000000000000000000000000000000000000000000000000000081526004018080602001828103825260098152602001807f4e4f545f4f574e4552000000000000000000000000000000000000000000000081525060200191505060405180910390fd5b611e2681612049565b50565b60065481565b600080828401905083811015611ead576040517f08c379a000000000000000000000000000000000000000000000000000000000815260040180806020018281038252601b8152602001807f536166654d6174683a206164646974696f6e206f766572666c6f77000000000081525060200191505060405180910390fd5b8091505092915050565b600080831415611eca5760009050611f37565b6000828402905082848281611edb57fe5b0414611f32576040517f08c379a000000000000000000000000000000000000000000000000000000000815260040180806020018281038252602181526020018061219d6021913960400191505060405180910390fd5b809150505b92915050565b6000808211611fb4576040517f08c379a000000000000000000000000000000000000000000000000000000000815260040180806020018281038252601a8152602001807f536166654d6174683a206469766973696f6e206279207a65726f00000000000081525060200191505060405180910390fd5b818381611fbd57fe5b04905092915050565b60008282111561203e576040517f08c379a000000000000000000000000000000000000000000000000000000000815260040180806020018281038252601e8152602001807f536166654d6174683a207375627472616374696f6e206f766572666c6f77000081525060200191505060405180910390fd5b818303905092915050565b600073ffffffffffffffffffffffffffffffffffffffff168173ffffffffffffffffffffffffffffffffffffffff1614156120cf576040517f08c379a000000000000000000000000000000000000000000000000000000000815260040180806020018281038252602b815260200180612172602b913960400191505060405180910390fd5b8073ffffffffffffffffffffffffffffffffffffffff166120ee6116d2565b73ffffffffffffffffffffffffffffffffffffffff167f8be0079c531659141344cd1fd0a4f28419497f9722a3daafe3b4186f6b6457e060405160405180910390a3600060405180807f70726f78792e6f776e6572000000000000000000000000000000000000000000815250600b01905060405180910390209050818155505056fe4f776e61626c6550726f78793a206e6577206f776e657220697320746865207a65726f2061646472657373536166654d6174683a206d756c7469706c69636174696f6e206f766572666c6f77a26469706673582212207797427440ab159a58d96f26fe4f41339a4606bbd3012909be0876f26904259a64736f6c634300060b00334f776e61626c6550726f78793a206e6577206f776e657220697320746865207a65726f2061646472657373",
    "linkReferences": {},
    "deployedLinkReferences": {}
}