{
  "contractName": "MockDownstream",
  "abi": [
    {
      "anonymous": false,
      "inputs": [
        {
          "indexed": false,
          "name": "instanceName",
          "type": "string"
        },
        {
          "indexed": false,
          "name": "functionName",
          "type": "string"
        },
        {
          "indexed": false,
          "name": "caller",
          "type": "address"
        }
      ],
      "name": "FunctionCalled",
      "type": "event"
    },
    {
      "anonymous": false,
      "inputs": [
        {
          "indexed": false,
          "name": "uintVals",
          "type": "uint256[]"
        },
        {
          "indexed": false,
          "name": "intVals",
          "type": "int256[]"
        }
      ],
      "name": "FunctionArguments",
      "type": "event"
    },
    {
      "anonymous": false,
      "inputs": [
        {
          "indexed": false,
          "name": "val",
          "type": "int256"
        }
      ],
      "name": "ReturnValueInt256",
      "type": "event"
    },
    {
      "anonymous": false,
      "inputs": [
        {
          "indexed": false,
          "name": "val",
          "type": "uint256"
        }
      ],
      "name": "ReturnValueUInt256",
      "type": "event"
    },
    {
      "constant": false,
      "inputs": [],
      "name": "updateNoArg",
      "outputs": [
        {
          "name": "",
          "type": "bool"
        }
      ],
      "payable": false,
      "stateMutability": "nonpayable",
      "type": "function"
    },
    {
      "constant": false,
      "inputs": [
        {
          "name": "u",
          "type": "uint256"
        }
      ],
      "name": "updateOneArg",
      "outputs": [],
      "payable": false,
      "stateMutability": "nonpayable",
      "type": "function"
    },
    {
      "constant": false,
      "inputs": [
        {
          "name": "u",
          "type": "uint256"
        },
        {
          "name": "i",
          "type": "int256"
        }
      ],
      "name": "updateTwoArgs",
      "outputs": [],
      "payable": false,
      "stateMutability": "nonpayable",
      "type": "function"
    },
    {
      "constant": false,
      "inputs": [],
      "name": "reverts",
      "outputs": [],
      "payable": false,
      "stateMutability": "nonpayable",
      "type": "function"
    }
  ],
  "bytecode": "0x608060405234801561001057600080fd5b50610a23806100206000396000f300608060405260043610610062576000357c0100000000000000000000000000000000000000000000000000000000900463ffffffff1680633bccbbc91461006757806355dfaf3c1461007e5780638d36a053146100ab578063ae621594146100e2575b600080fd5b34801561007357600080fd5b5061007c610111565b005b34801561008a57600080fd5b506100a96004803603810190808035906020019092919050505061038a565b005b3480156100b757600080fd5b506100e060048036038101908080359060200190929190803590602001909291905050506105ac565b005b3480156100ee57600080fd5b506100f76107ed565b604051808215151515815260200191505060405180910390f35b6060807f2b3954800366dad952bc52d224185a924290610f61c43c305929b61f35dfd178336040518080602001806020018473ffffffffffffffffffffffffffffffffffffffff1673ffffffffffffffffffffffffffffffffffffffff1681526020018381038352600e8152602001807f4d6f636b446f776e73747265616d000000000000000000000000000000000000815250602001838103825260078152602001807f7265766572747300000000000000000000000000000000000000000000000000815250602001935050505060405180910390a160006040519080825280602002602001820160405280156102195781602001602082028038833980820191505090505b509150600060405190808252806020026020018201604052801561024c5781602001602082028038833980820191505090505b5090507f69f1ebb2f5d5fe881edd7ce79704e3262cd83e0e125c754cdc807f663eaf419c8282604051808060200180602001838103835285818151815260200191508051906020019060200280838360005b838110156102b957808201518184015260208101905061029e565b50505050905001838103825284818151815260200191508051906020019060200280838360005b838110156102fb5780820151818401526020810190506102e0565b5050505090500194505050505060405180910390a160001515610386576040517f08c379a00000000000000000000000000000000000000000000000000000000081526004018080602001828103825260088152602001807f726576657274656400000000000000000000000000000000000000000000000081525060200191505060405180910390fd5b5050565b6060807f2b3954800366dad952bc52d224185a924290610f61c43c305929b61f35dfd178336040518080602001806020018473ffffffffffffffffffffffffffffffffffffffff1673ffffffffffffffffffffffffffffffffffffffff1681526020018381038352600e8152602001807f4d6f636b446f776e73747265616d0000000000000000000000000000000000008152506020018381038252600c8152602001807f7570646174654f6e654172670000000000000000000000000000000000000000815250602001935050505060405180910390a160016040519080825280602002602001820160405280156104925781602001602082028038833980820191505090505b509150828260008151811015156104a557fe5b906020019060200201818152505060006040519080825280602002602001820160405280156104e35781602001602082028038833980820191505090505b5090507f69f1ebb2f5d5fe881edd7ce79704e3262cd83e0e125c754cdc807f663eaf419c8282604051808060200180602001838103835285818151815260200191508051906020019060200280838360005b83811015610550578082015181840152602081019050610535565b50505050905001838103825284818151815260200191508051906020019060200280838360005b83811015610592578082015181840152602081019050610577565b5050505090500194505050505060405180910390a1505050565b6060807f2b3954800366dad952bc52d224185a924290610f61c43c305929b61f35dfd178336040518080602001806020018473ffffffffffffffffffffffffffffffffffffffff1673ffffffffffffffffffffffffffffffffffffffff1681526020018381038352600e8152602001807f4d6f636b446f776e73747265616d0000000000000000000000000000000000008152506020018381038252600d8152602001807f75706461746554776f4172677300000000000000000000000000000000000000815250602001935050505060405180910390a160016040519080825280602002602001820160405280156106b45781602001602082028038833980820191505090505b509150838260008151811015156106c757fe5b906020019060200201818152505060016040519080825280602002602001820160405280156107055781602001602082028038833980820191505090505b5090508281600081518110151561071857fe5b90602001906020020181815250507f69f1ebb2f5d5fe881edd7ce79704e3262cd83e0e125c754cdc807f663eaf419c8282604051808060200180602001838103835285818151815260200191508051906020019060200280838360005b83811015610790578082015181840152602081019050610775565b50505050905001838103825284818151815260200191508051906020019060200280838360005b838110156107d25780820151818401526020810190506107b7565b5050505090500194505050505060405180910390a150505050565b60006060807f2b3954800366dad952bc52d224185a924290610f61c43c305929b61f35dfd178336040518080602001806020018473ffffffffffffffffffffffffffffffffffffffff1673ffffffffffffffffffffffffffffffffffffffff1681526020018381038352600e8152602001807f4d6f636b446f776e73747265616d0000000000000000000000000000000000008152506020018381038252600b8152602001807f7570646174654e6f417267000000000000000000000000000000000000000000815250602001935050505060405180910390a160006040519080825280602002602001820160405280156108f75781602001602082028038833980820191505090505b509150600060405190808252806020026020018201604052801561092a5781602001602082028038833980820191505090505b5090507f69f1ebb2f5d5fe881edd7ce79704e3262cd83e0e125c754cdc807f663eaf419c8282604051808060200180602001838103835285818151815260200191508051906020019060200280838360005b8381101561099757808201518184015260208101905061097c565b50505050905001838103825284818151815260200191508051906020019060200280838360005b838110156109d95780820151818401526020810190506109be565b5050505090500194505050505060405180910390a1600192505050905600a165627a7a72305820a91a70f0f20016cb22a1ae22aaca03a5abd3e7274c9ff0d94c232f49bc6c71d30029",
  "source": "pragma solidity 0.4.24;\n\nimport \"./Mock.sol\";\n\n\ncontract MockDownstream is Mock {\n\n    function updateNoArg() external returns (bool) {\n        emit FunctionCalled(\"MockDownstream\", \"updateNoArg\", msg.sender);\n        uint256[] memory uintVals = new uint256[](0);\n        int256[] memory intVals = new int256[](0);\n        emit FunctionArguments(uintVals, intVals);\n        return true;\n    }\n\n    function updateOneArg(uint256 u) external {\n        emit FunctionCalled(\"MockDownstream\", \"updateOneArg\", msg.sender);\n\n        uint256[] memory uintVals = new uint256[](1);\n        uintVals[0] = u;\n        int256[] memory intVals = new int256[](0);\n        emit FunctionArguments(uintVals, intVals);\n    }\n\n    function updateTwoArgs(uint256 u, int256 i) external {\n        emit FunctionCalled(\"MockDownstream\", \"updateTwoArgs\", msg.sender);\n\n        uint256[] memory uintVals = new uint256[](1);\n        uintVals[0] = u;\n        int256[] memory intVals = new int256[](1);\n        intVals[0] = i;\n        emit FunctionArguments(uintVals, intVals);\n    }\n\n    function reverts() external {\n        emit FunctionCalled(\"MockDownstream\", \"reverts\", msg.sender);\n\n        uint256[] memory uintVals = new uint256[](0);\n        int256[] memory intVals = new int256[](0);\n        emit FunctionArguments(uintVals, intVals);\n\n        require(false, \"reverted\");\n    }\n}\n",
  "sourcePath": "/Users/present/code/digg-core/contracts/mocks/MockDownstream.sol",
  "compiler": {
    "name": "solc",
    "version": "0.4.24+commit.e67f0147.Emscripten.clang"
  },
  "schemaVersion": "2.0.1",
  "updatedAt": "2020-09-02T08:23:18.887Z"
}