{
  "contractName": "MockOracle",
  "abi": [
    {
      "constant": true,
      "inputs": [],
      "name": "name",
      "outputs": [
        {
          "name": "",
          "type": "string"
        }
      ],
      "payable": false,
      "stateMutability": "view",
      "type": "function"
    },
    {
      "inputs": [
        {
          "name": "name_",
          "type": "string"
        }
      ],
      "payable": false,
      "stateMutability": "nonpayable",
      "type": "constructor"
    },
    {
      "anonymous": false,
      "inputs": [
        {
          "indexed": false,
          "name": "instanceName",
          "type": "string"
        },
        {
          "indexed": false,
          "name": "functionName",
          "type": "string"
        },
        {
          "indexed": false,
          "name": "caller",
          "type": "address"
        }
      ],
      "name": "FunctionCalled",
      "type": "event"
    },
    {
      "anonymous": false,
      "inputs": [
        {
          "indexed": false,
          "name": "uintVals",
          "type": "uint256[]"
        },
        {
          "indexed": false,
          "name": "intVals",
          "type": "int256[]"
        }
      ],
      "name": "FunctionArguments",
      "type": "event"
    },
    {
      "anonymous": false,
      "inputs": [
        {
          "indexed": false,
          "name": "val",
          "type": "int256"
        }
      ],
      "name": "ReturnValueInt256",
      "type": "event"
    },
    {
      "anonymous": false,
      "inputs": [
        {
          "indexed": false,
          "name": "val",
          "type": "uint256"
        }
      ],
      "name": "ReturnValueUInt256",
      "type": "event"
    },
    {
      "constant": false,
      "inputs": [],
      "name": "getData",
      "outputs": [
        {
          "name": "",
          "type": "uint256"
        },
        {
          "name": "",
          "type": "bool"
        }
      ],
      "payable": false,
      "stateMutability": "nonpayable",
      "type": "function"
    },
    {
      "constant": false,
      "inputs": [
        {
          "name": "data",
          "type": "uint256"
        }
      ],
      "name": "storeData",
      "outputs": [],
      "payable": false,
      "stateMutability": "nonpayable",
      "type": "function"
    },
    {
      "constant": false,
      "inputs": [
        {
          "name": "validity",
          "type": "bool"
        }
      ],
      "name": "storeValidity",
      "outputs": [],
      "payable": false,
      "stateMutability": "nonpayable",
      "type": "function"
    }
  ],
  "bytecode": "0x608060405260016000806101000a81548160ff02191690831515021790555034801561002a57600080fd5b5060405161060738038061060783398101806040528101908080518201929190505050806002908051906020019061006392919061006a565b505061010f565b828054600181600116156101000203166002900490600052602060002090601f016020900481019282601f106100ab57805160ff19168380011785556100d9565b828001600101855582156100d9579182015b828111156100d85782518255916020019190600101906100bd565b5b5090506100e691906100ea565b5090565b61010c91905b808211156101085760008160009055506001016100f0565b5090565b90565b6104e98061011e6000396000f300608060405260043610610062576000357c0100000000000000000000000000000000000000000000000000000000900463ffffffff16806306fdde031461006757806316b95176146100f7578063212c702c146101245780633bc5de3014610153575b600080fd5b34801561007357600080fd5b5061007c610189565b6040518080602001828103825283818151815260200191508051906020019080838360005b838110156100bc5780820151818401526020810190506100a1565b50505050905090810190601f1680156100e95780820380516001836020036101000a031916815260200191505b509250505060405180910390f35b34801561010357600080fd5b5061012260048036038101908080359060200190929190505050610227565b005b34801561013057600080fd5b50610151600480360381019080803515159060200190929190505050610231565b005b34801561015f57600080fd5b5061016861024d565b60405180838152602001821515151581526020019250505060405180910390f35b60028054600181600116156101000203166002900480601f01602080910402602001604051908101604052809291908181526020018280546001816001161561010002031660029004801561021f5780601f106101f45761010080835404028352916020019161021f565b820191906000526020600020905b81548152906001019060200180831161020257829003601f168201915b505050505081565b8060018190555050565b806000806101000a81548160ff02191690831515021790555050565b6000806060807f2b3954800366dad952bc52d224185a924290610f61c43c305929b61f35dfd1786002336040518080602001806020018473ffffffffffffffffffffffffffffffffffffffff1673ffffffffffffffffffffffffffffffffffffffff1681526020018381038352858181546001816001161561010002031660029004815260200191508054600181600116156101000203166002900480156103365780601f1061030b57610100808354040283529160200191610336565b820191906000526020600020905b81548152906001019060200180831161031957829003601f168201915b5050838103825260078152602001807f676574446174610000000000000000000000000000000000000000000000000081525060200194505050505060405180910390a160006040519080825280602002602001820160405280156103aa5781602001602082028038833980820191505090505b50915060006040519080825280602002602001820160405280156103dd5781602001602082028038833980820191505090505b5090507f69f1ebb2f5d5fe881edd7ce79704e3262cd83e0e125c754cdc807f663eaf419c8282604051808060200180602001838103835285818151815260200191508051906020019060200280838360005b8381101561044a57808201518184015260208101905061042f565b50505050905001838103825284818151815260200191508051906020019060200280838360005b8381101561048c578082015181840152602081019050610471565b5050505090500194505050505060405180910390a16001546000809054906101000a900460ff1693509350505090915600a165627a7a72305820fb4fac505dee5e0bff6abbab6d24d8a6b71b49408fda70f84cf3eae00c67b3c70029",
  "source": "pragma solidity 0.4.24;\n\nimport \"./Mock.sol\";\n\n\ncontract MockOracle is IMock {\n    bool private _validity = true;\n    uint256 private _data;\n    string public name;\n\n    constructor(string name_) public {\n        name = name_;\n    }\n\n    // Mock methods\n    function getData()\n        external\n        returns (uint256, bool)\n    {\n        emit FunctionCalled(name, \"getData\", msg.sender);\n        uint256[] memory uintVals = new uint256[](0);\n        int256[] memory intVals = new int256[](0);\n        emit FunctionArguments(uintVals, intVals);\n        return (_data, _validity);\n    }\n\n    // Methods to mock data on the chain\n    function storeData(uint256 data)\n        public\n    {\n        _data = data;\n    }\n\n    function storeValidity(bool validity)\n        public\n    {\n        _validity = validity;\n    }\n}\n",
  "sourcePath": "/Users/present/code/digg-core/contracts/mocks/MockOracle.sol",
  "compiler": {
    "name": "solc",
    "version": "0.4.24+commit.e67f0147.Emscripten.clang"
  },
  "schemaVersion": "2.0.1",
  "updatedAt": "2020-09-02T08:23:18.888Z"
}