{
  "contractName": "UFragmentsPolicy",
  "abi": [
    {
      "constant": true,
      "inputs": [],
      "name": "minRebaseTimeIntervalSec",
      "outputs": [
        {
          "name": "",
          "type": "uint256"
        }
      ],
      "payable": false,
      "stateMutability": "view",
      "type": "function"
    },
    {
      "constant": true,
      "inputs": [],
      "name": "lastRebaseTimestampSec",
      "outputs": [
        {
          "name": "",
          "type": "uint256"
        }
      ],
      "payable": false,
      "stateMutability": "view",
      "type": "function"
    },
    {
      "constant": true,
      "inputs": [],
      "name": "marketOracle",
      "outputs": [
        {
          "name": "",
          "type": "address"
        }
      ],
      "payable": false,
      "stateMutability": "view",
      "type": "function"
    },
    {
      "constant": true,
      "inputs": [],
      "name": "rebaseLag",
      "outputs": [
        {
          "name": "",
          "type": "uint256"
        }
      ],
      "payable": false,
      "stateMutability": "view",
      "type": "function"
    },
    {
      "constant": true,
      "inputs": [],
      "name": "rebaseWindowOffsetSec",
      "outputs": [
        {
          "name": "",
          "type": "uint256"
        }
      ],
      "payable": false,
      "stateMutability": "view",
      "type": "function"
    },
    {
      "constant": false,
      "inputs": [],
      "name": "renounceOwnership",
      "outputs": [],
      "payable": false,
      "stateMutability": "nonpayable",
      "type": "function"
    },
    {
      "constant": true,
      "inputs": [],
      "name": "owner",
      "outputs": [
        {
          "name": "",
          "type": "address"
        }
      ],
      "payable": false,
      "stateMutability": "view",
      "type": "function"
    },
    {
      "constant": true,
      "inputs": [],
      "name": "isOwner",
      "outputs": [
        {
          "name": "",
          "type": "bool"
        }
      ],
      "payable": false,
      "stateMutability": "view",
      "type": "function"
    },
    {
      "constant": true,
      "inputs": [],
      "name": "epoch",
      "outputs": [
        {
          "name": "",
          "type": "uint256"
        }
      ],
      "payable": false,
      "stateMutability": "view",
      "type": "function"
    },
    {
      "constant": true,
      "inputs": [],
      "name": "rebaseWindowLengthSec",
      "outputs": [
        {
          "name": "",
          "type": "uint256"
        }
      ],
      "payable": false,
      "stateMutability": "view",
      "type": "function"
    },
    {
      "constant": true,
      "inputs": [],
      "name": "cpiOracle",
      "outputs": [
        {
          "name": "",
          "type": "address"
        }
      ],
      "payable": false,
      "stateMutability": "view",
      "type": "function"
    },
    {
      "constant": true,
      "inputs": [],
      "name": "orchestrator",
      "outputs": [
        {
          "name": "",
          "type": "address"
        }
      ],
      "payable": false,
      "stateMutability": "view",
      "type": "function"
    },
    {
      "constant": true,
      "inputs": [],
      "name": "uFrags",
      "outputs": [
        {
          "name": "",
          "type": "address"
        }
      ],
      "payable": false,
      "stateMutability": "view",
      "type": "function"
    },
    {
      "constant": true,
      "inputs": [],
      "name": "deviationThreshold",
      "outputs": [
        {
          "name": "",
          "type": "uint256"
        }
      ],
      "payable": false,
      "stateMutability": "view",
      "type": "function"
    },
    {
      "constant": false,
      "inputs": [
        {
          "name": "newOwner",
          "type": "address"
        }
      ],
      "name": "transferOwnership",
      "outputs": [],
      "payable": false,
      "stateMutability": "nonpayable",
      "type": "function"
    },
    {
      "anonymous": false,
      "inputs": [
        {
          "indexed": true,
          "name": "epoch",
          "type": "uint256"
        },
        {
          "indexed": false,
          "name": "exchangeRate",
          "type": "uint256"
        },
        {
          "indexed": false,
          "name": "cpi",
          "type": "uint256"
        },
        {
          "indexed": false,
          "name": "requestedSupplyAdjustment",
          "type": "int256"
        },
        {
          "indexed": false,
          "name": "timestampSec",
          "type": "uint256"
        }
      ],
      "name": "LogRebase",
      "type": "event"
    },
    {
      "anonymous": false,
      "inputs": [
        {
          "indexed": true,
          "name": "previousOwner",
          "type": "address"
        }
      ],
      "name": "OwnershipRenounced",
      "type": "event"
    },
    {
      "anonymous": false,
      "inputs": [
        {
          "indexed": true,
          "name": "previousOwner",
          "type": "address"
        },
        {
          "indexed": true,
          "name": "newOwner",
          "type": "address"
        }
      ],
      "name": "OwnershipTransferred",
      "type": "event"
    },
    {
      "constant": false,
      "inputs": [],
      "name": "rebase",
      "outputs": [],
      "payable": false,
      "stateMutability": "nonpayable",
      "type": "function"
    },
    {
      "constant": false,
      "inputs": [
        {
          "name": "cpiOracle_",
          "type": "address"
        }
      ],
      "name": "setCpiOracle",
      "outputs": [],
      "payable": false,
      "stateMutability": "nonpayable",
      "type": "function"
    },
    {
      "constant": false,
      "inputs": [
        {
          "name": "marketOracle_",
          "type": "address"
        }
      ],
      "name": "setMarketOracle",
      "outputs": [],
      "payable": false,
      "stateMutability": "nonpayable",
      "type": "function"
    },
    {
      "constant": false,
      "inputs": [
        {
          "name": "orchestrator_",
          "type": "address"
        }
      ],
      "name": "setOrchestrator",
      "outputs": [],
      "payable": false,
      "stateMutability": "nonpayable",
      "type": "function"
    },
    {
      "constant": false,
      "inputs": [
        {
          "name": "deviationThreshold_",
          "type": "uint256"
        }
      ],
      "name": "setDeviationThreshold",
      "outputs": [],
      "payable": false,
      "stateMutability": "nonpayable",
      "type": "function"
    },
    {
      "constant": false,
      "inputs": [
        {
          "name": "rebaseLag_",
          "type": "uint256"
        }
      ],
      "name": "setRebaseLag",
      "outputs": [],
      "payable": false,
      "stateMutability": "nonpayable",
      "type": "function"
    },
    {
      "constant": false,
      "inputs": [
        {
          "name": "minRebaseTimeIntervalSec_",
          "type": "uint256"
        },
        {
          "name": "rebaseWindowOffsetSec_",
          "type": "uint256"
        },
        {
          "name": "rebaseWindowLengthSec_",
          "type": "uint256"
        }
      ],
      "name": "setRebaseTimingParameters",
      "outputs": [],
      "payable": false,
      "stateMutability": "nonpayable",
      "type": "function"
    },
    {
      "constant": false,
      "inputs": [
        {
          "name": "owner_",
          "type": "address"
        },
        {
          "name": "uFrags_",
          "type": "address"
        },
        {
          "name": "baseCpi_",
          "type": "uint256"
        }
      ],
      "name": "initialize",
      "outputs": [],
      "payable": false,
      "stateMutability": "nonpayable",
      "type": "function"
    },
    {
      "constant": false,
      "inputs": [
        {
          "name": "sender",
          "type": "address"
        }
      ],
      "name": "initialize",
      "outputs": [],
      "payable": false,
      "stateMutability": "nonpayable",
      "type": "function"
    },
    {
      "constant": true,
      "inputs": [],
      "name": "inRebaseWindow",
      "outputs": [
        {
          "name": "",
          "type": "bool"
        }
      ],
      "payable": false,
      "stateMutability": "view",
      "type": "function"
    }
  ],
  "bytecode": "0x608060405234801561001057600080fd5b506119d5806100206000396000f300608060405260043610610149576000357c0100000000000000000000000000000000000000000000000000000000900463ffffffff168063021018991461014e578063111d04981461017957806316250fd4146101a85780631794bb3c146101e957806320ce8389146102565780633a93069b146102835780633d6a46e5146102ae57806353a15edc146102f1578063609615281461031e57806363f6d4c8146103755780637052b902146103a0578063715018a6146103cb5780638da5cb5b146103e25780638f32d59b14610439578063900cf0cf146104685780639466120f146104935780639e30bac5146104be578063ab33c5ca14610501578063af14052c14610558578063b74795d91461056f578063c4d66de8146105c6578063cd28ef0d14610609578063d3d55d511461064c578063d94ad837146106a3578063f2fde38b146106ce575b600080fd5b34801561015a57600080fd5b50610163610711565b6040518082815260200191505060405180910390f35b34801561018557600080fd5b5061018e610717565b604051808215151515815260200191505060405180910390f35b3480156101b457600080fd5b506101e760048036038101908080359060200190929190803590602001909291908035906020019092919050505061076d565b005b3480156101f557600080fd5b50610254600480360381019080803573ffffffffffffffffffffffffffffffffffffffff169060200190929190803573ffffffffffffffffffffffffffffffffffffffff169060200190929190803590602001909291905050506107b7565b005b34801561026257600080fd5b5061028160048036038101908080359060200190929190505050610986565b005b34801561028f57600080fd5b506102986109b2565b6040518082815260200191505060405180910390f35b3480156102ba57600080fd5b506102ef600480360381019080803573ffffffffffffffffffffffffffffffffffffffff1690602001909291905050506109b8565b005b3480156102fd57600080fd5b5061031c60048036038101908080359060200190929190505050610a0f565b005b34801561032a57600080fd5b50610333610a2c565b604051808273ffffffffffffffffffffffffffffffffffffffff1673ffffffffffffffffffffffffffffffffffffffff16815260200191505060405180910390f35b34801561038157600080fd5b5061038a610a52565b6040518082815260200191505060405180910390f35b3480156103ac57600080fd5b506103b5610a58565b6040518082815260200191505060405180910390f35b3480156103d757600080fd5b506103e0610a5e565b005b3480156103ee57600080fd5b506103f7610b1a565b604051808273ffffffffffffffffffffffffffffffffffffffff1673ffffffffffffffffffffffffffffffffffffffff16815260200191505060405180910390f35b34801561044557600080fd5b5061044e610b44565b604051808215151515815260200191505060405180910390f35b34801561047457600080fd5b5061047d610b9c565b6040518082815260200191505060405180910390f35b34801561049f57600080fd5b506104a8610ba2565b6040518082815260200191505060405180910390f35b3480156104ca57600080fd5b506104ff600480360381019080803573ffffffffffffffffffffffffffffffffffffffff169060200190929190505050610ba8565b005b34801561050d57600080fd5b50610516610bff565b604051808273ffffffffffffffffffffffffffffffffffffffff1673ffffffffffffffffffffffffffffffffffffffff16815260200191505060405180910390f35b34801561056457600080fd5b5061056d610c25565b005b34801561057b57600080fd5b506105846112ac565b604051808273ffffffffffffffffffffffffffffffffffffffff1673ffffffffffffffffffffffffffffffffffffffff16815260200191505060405180910390f35b3480156105d257600080fd5b50610607600480360381019080803573ffffffffffffffffffffffffffffffffffffffff1690602001909291905050506112d2565b005b34801561061557600080fd5b5061064a600480360381019080803573ffffffffffffffffffffffffffffffffffffffff169060200190929190505050611449565b005b34801561065857600080fd5b506106616114a0565b604051808273ffffffffffffffffffffffffffffffffffffffff1673ffffffffffffffffffffffffffffffffffffffff16815260200191505060405180910390f35b3480156106af57600080fd5b506106b86114c6565b6040518082815260200191505060405180910390f35b3480156106da57600080fd5b5061070f600480360381019080803573ffffffffffffffffffffffffffffffffffffffff1690602001909291905050506114cc565b005b606c5481565b6000606e54610731606c54426114eb90919063ffffffff16565b101580156107685750610751606f54606e5461151090919063ffffffff16565b610766606c54426114eb90919063ffffffff16565b105b905090565b610775610b44565b151561078057600080fd5b60008311151561078f57600080fd5b828210151561079d57600080fd5b82606c8190555081606e8190555080606f81905550505050565b60008060019054906101000a900460ff16806107d757506107d6611531565b5b806107ee57506000809054906101000a900460ff16155b1515610888576040517f08c379a000000000000000000000000000000000000000000000000000000000815260040180806020018281038252602e8152602001807f436f6e747261637420696e7374616e63652068617320616c726561647920626581526020017f656e20696e697469616c697a656400000000000000000000000000000000000081525060400191505060405180910390fd5b600060019054906101000a900460ff1690506001600060016101000a81548160ff02191690831515021790555060016000806101000a81548160ff0219169083151502179055506108d8846112d2565b6002601203600a0a600502606a81905550601e606b8190555062015180606c8190555062011940606e81905550610384606f819055506000606d81905550600060708190555082606660006101000a81548173ffffffffffffffffffffffffffffffffffffffff021916908373ffffffffffffffffffffffffffffffffffffffff1602179055508160698190555080600060016101000a81548160ff02191690831515021790555050505050565b61098e610b44565b151561099957600080fd5b6000811115156109a857600080fd5b80606b8190555050565b606d5481565b6109c0610b44565b15156109cb57600080fd5b80606760006101000a81548173ffffffffffffffffffffffffffffffffffffffff021916908373ffffffffffffffffffffffffffffffffffffffff16021790555050565b610a17610b44565b1515610a2257600080fd5b80606a8190555050565b606860009054906101000a900473ffffffffffffffffffffffffffffffffffffffff1681565b606b5481565b606e5481565b610a66610b44565b1515610a7157600080fd5b603360009054906101000a900473ffffffffffffffffffffffffffffffffffffffff1673ffffffffffffffffffffffffffffffffffffffff167ff8df31144d9c2f0f6b59d69b8b98abd5459d07f2742c4df920b25aae33c6482060405160405180910390a26000603360006101000a81548173ffffffffffffffffffffffffffffffffffffffff021916908373ffffffffffffffffffffffffffffffffffffffff160217905550565b6000603360009054906101000a900473ffffffffffffffffffffffffffffffffffffffff16905090565b6000603360009054906101000a900473ffffffffffffffffffffffffffffffffffffffff1673ffffffffffffffffffffffffffffffffffffffff163373ffffffffffffffffffffffffffffffffffffffff1614905090565b60705481565b606f5481565b610bb0610b44565b1515610bbb57600080fd5b80606860006101000a81548173ffffffffffffffffffffffffffffffffffffffff021916908373ffffffffffffffffffffffffffffffffffffffff16021790555050565b606760009054906101000a900473ffffffffffffffffffffffffffffffffffffffff1681565b6000806000806000806000607160009054906101000a900473ffffffffffffffffffffffffffffffffffffffff1673ffffffffffffffffffffffffffffffffffffffff163373ffffffffffffffffffffffffffffffffffffffff16141515610c8c57600080fd5b610c94610717565b1515610c9f57600080fd5b42610cb7606c54606d5461151090919063ffffffff16565b101515610cc357600080fd5b610cfe606e54610cf0610ce1606c54426114eb90919063ffffffff16565b4261154290919063ffffffff16565b61151090919063ffffffff16565b606d81905550610d1a600160705461151090919063ffffffff16565b607081905550606760009054906101000a900473ffffffffffffffffffffffffffffffffffffffff1673ffffffffffffffffffffffffffffffffffffffff16633bc5de306040518163ffffffff167c01000000000000000000000000000000000000000000000000000000000281526004016040805180830381600087803b158015610da557600080fd5b505af1158015610db9573d6000803e3d6000fd5b505050506040513d6040811015610dcf57600080fd5b8101908080519060200190929190805190602001909291905050508097508198505050851515610dfe57600080fd5b610e29606954610e1b6012600a0a8a61156390919063ffffffff16565b6115a190919063ffffffff16565b9450606860009054906101000a900473ffffffffffffffffffffffffffffffffffffffff1673ffffffffffffffffffffffffffffffffffffffff16633bc5de306040518163ffffffff167c01000000000000000000000000000000000000000000000000000000000281526004016040805180830381600087803b158015610eb057600080fd5b505af1158015610ec4573d6000803e3d6000fd5b505050506040513d6040811015610eda57600080fd5b8101908080519060200190929190805190602001909291905050508094508195505050821515610f0957600080fd5b6012600a0a620f424002841115610f27576012600a0a620f42400293505b610f3184866115cb565b9150610f50610f41606b54611702565b8361172490919063ffffffff16565b915060008213801561105057506012600a0a620f42400260ff60019060020a0219811515610f7a57fe5b0461104e83606660009054906101000a900473ffffffffffffffffffffffffffffffffffffffff1673ffffffffffffffffffffffffffffffffffffffff166318160ddd6040518163ffffffff167c0100000000000000000000000000000000000000000000000000000000028152600401602060405180830381600087803b15801561100557600080fd5b505af1158015611019573d6000803e3d6000fd5b505050506040513d602081101561102f57600080fd5b810190808051906020019092919050505061151090919063ffffffff16565b115b156111505761114d611148606660009054906101000a900473ffffffffffffffffffffffffffffffffffffffff1673ffffffffffffffffffffffffffffffffffffffff166318160ddd6040518163ffffffff167c0100000000000000000000000000000000000000000000000000000000028152600401602060405180830381600087803b1580156110e157600080fd5b505af11580156110f5573d6000803e3d6000fd5b505050506040513d602081101561110b57600080fd5b81019080805190602001909291905050506012600a0a620f42400260ff60019060020a021981151561113957fe5b0461154290919063ffffffff16565b611702565b91505b606660009054906101000a900473ffffffffffffffffffffffffffffffffffffffff1673ffffffffffffffffffffffffffffffffffffffff16637a43e23f607054846040518363ffffffff167c01000000000000000000000000000000000000000000000000000000000281526004018083815260200182815260200192505050602060405180830381600087803b1580156111eb57600080fd5b505af11580156111ff573d6000803e3d6000fd5b505050506040513d602081101561121557600080fd5b810190808051906020019092919050505090506012600a0a620f42400260ff60019060020a021981151561124557fe5b04811115151561125157fe5b6070547f41d948a7f29cc695f5d4b3ec147f766bffa165ddd317470fbe05c86d0a9c3e04858985426040518085815260200184815260200183815260200182815260200194505050505060405180910390a250505050505050565b607160009054906101000a900473ffffffffffffffffffffffffffffffffffffffff1681565b60008060019054906101000a900460ff16806112f257506112f1611531565b5b8061130957506000809054906101000a900460ff16155b15156113a3576040517f08c379a000000000000000000000000000000000000000000000000000000000815260040180806020018281038252602e8152602001807f436f6e747261637420696e7374616e63652068617320616c726561647920626581526020017f656e20696e697469616c697a656400000000000000000000000000000000000081525060400191505060405180910390fd5b600060019054906101000a900460ff1690506001600060016101000a81548160ff02191690831515021790555060016000806101000a81548160ff02191690831515021790555081603360006101000a81548173ffffffffffffffffffffffffffffffffffffffff021916908373ffffffffffffffffffffffffffffffffffffffff16021790555080600060016101000a81548160ff0219169083151502179055505050565b611451610b44565b151561145c57600080fd5b80607160006101000a81548173ffffffffffffffffffffffffffffffffffffffff021916908373ffffffffffffffffffffffffffffffffffffffff16021790555050565b606660009054906101000a900473ffffffffffffffffffffffffffffffffffffffff1681565b606a5481565b6114d4610b44565b15156114df57600080fd5b6114e88161177c565b50565b60008082141515156114fc57600080fd5b818381151561150757fe5b06905092915050565b600080828401905083811015151561152757600080fd5b8091505092915050565b600080303b90506000811491505090565b60008083831115151561155457600080fd5b82840390508091505092915050565b6000806000841415611578576000915061159a565b828402905082848281151561158957fe5b0414151561159657600080fd5b8091505b5092915050565b6000806000831115156115b357600080fd5b82848115156115be57fe5b0490508091505092915050565b6000806115d88484611878565b156115e657600091506116fb565b6115ef83611702565b90506116f8816116ea6116138461160589611702565b6118f990919063ffffffff16565b6116dc606660009054906101000a900473ffffffffffffffffffffffffffffffffffffffff1673ffffffffffffffffffffffffffffffffffffffff166318160ddd6040518163ffffffff167c0100000000000000000000000000000000000000000000000000000000028152600401602060405180830381600087803b15801561169c57600080fd5b505af11580156116b0573d6000803e3d6000fd5b505050506040513d60208110156116c657600080fd5b8101908080519060200190929190505050611702565b61193d90919063ffffffff16565b61172490919063ffffffff16565b91505b5092915050565b600060ff60019060020a0219821115151561171c57600080fd5b819050919050565b60007fffffffffffffffffffffffffffffffffffffffffffffffffffffffffffffffff8214158061175d575060ff60019060020a028314155b151561176857600080fd5b818381151561177357fe5b05905092915050565b600073ffffffffffffffffffffffffffffffffffffffff168173ffffffffffffffffffffffffffffffffffffffff16141515156117b857600080fd5b8073ffffffffffffffffffffffffffffffffffffffff16603360009054906101000a900473ffffffffffffffffffffffffffffffffffffffff1673ffffffffffffffffffffffffffffffffffffffff167f8be0079c531659141344cd1fd0a4f28419497f9722a3daafe3b4186f6b6457e060405160405180910390a380603360006101000a81548173ffffffffffffffffffffffffffffffffffffffff021916908373ffffffffffffffffffffffffffffffffffffffff16021790555050565b6000806118a66012600a0a611898606a548661156390919063ffffffff16565b6115a190919063ffffffff16565b90508284101580156118c95750806118c7848661154290919063ffffffff16565b105b806118f0575082841080156118ef5750806118ed858561154290919063ffffffff16565b105b5b91505092915050565b6000808284039050600083121580156119125750838113155b80611928575060008312801561192757508381135b5b151561193357600080fd5b8091505092915050565b600080828402905060ff60019060020a0281141580611970575060ff60019060020a02831660ff60019060020a02851614155b151561197b57600080fd5b6000831480611994575083838281151561199157fe5b05145b151561199f57600080fd5b80915050929150505600a165627a7a723058200a24dbaf3eba602cd4c76fa6889a434960f04035f34864be497cc3bfb20d62060029",
  "source": "pragma solidity 0.4.24;\n\nimport \"openzeppelin-eth/contracts/math/SafeMath.sol\";\nimport \"openzeppelin-eth/contracts/ownership/Ownable.sol\";\n\nimport \"./lib/SafeMathInt.sol\";\nimport \"./lib/UInt256Lib.sol\";\nimport \"./UFragments.sol\";\n\n\ninterface IOracle {\n    function getData() external returns (uint256, bool);\n}\n\n\n/**\n * @title uFragments Monetary Supply Policy\n * @dev This is an implementation of the uFragments Ideal Money protocol.\n *      uFragments operates symmetrically on expansion and contraction. It will both split and\n *      combine coins to maintain a stable unit price.\n *\n *      This component regulates the token supply of the uFragments ERC20 token in response to\n *      market oracles.\n */\ncontract UFragmentsPolicy is Ownable {\n    using SafeMath for uint256;\n    using SafeMathInt for int256;\n    using UInt256Lib for uint256;\n\n    event LogRebase(\n        uint256 indexed epoch,\n        uint256 exchangeRate,\n        uint256 cpi,\n        int256 requestedSupplyAdjustment,\n        uint256 timestampSec\n    );\n\n    UFragments public uFrags;\n\n    // Provides the current CPI, as an 18 decimal fixed point number.\n    IOracle public cpiOracle;\n\n    // Market oracle provides the token/USD exchange rate as an 18 decimal fixed point number.\n    // (eg) An oracle value of 1.5e18 it would mean 1 Ample is trading for $1.50.\n    IOracle public marketOracle;\n\n    // CPI value at the time of launch, as an 18 decimal fixed point number.\n    uint256 private baseCpi;\n\n    // If the current exchange rate is within this fractional distance from the target, no supply\n    // update is performed. Fixed point number--same format as the rate.\n    // (ie) abs(rate - targetRate) / targetRate < deviationThreshold, then no supply change.\n    // DECIMALS Fixed point number.\n    uint256 public deviationThreshold;\n\n    // The rebase lag parameter, used to dampen the applied supply adjustment by 1 / rebaseLag\n    // Check setRebaseLag comments for more details.\n    // Natural number, no decimal places.\n    uint256 public rebaseLag;\n\n    // More than this much time must pass between rebase operations.\n    uint256 public minRebaseTimeIntervalSec;\n\n    // Block timestamp of last rebase operation\n    uint256 public lastRebaseTimestampSec;\n\n    // The rebase window begins this many seconds into the minRebaseTimeInterval period.\n    // For example if minRebaseTimeInterval is 24hrs, it represents the time of day in seconds.\n    uint256 public rebaseWindowOffsetSec;\n\n    // The length of the time window where a rebase operation is allowed to execute, in seconds.\n    uint256 public rebaseWindowLengthSec;\n\n    // The number of rebase cycles since inception\n    uint256 public epoch;\n\n    uint256 private constant DECIMALS = 18;\n\n    // Due to the expression in computeSupplyDelta(), MAX_RATE * MAX_SUPPLY must fit into an int256.\n    // Both are 18 decimals fixed point numbers.\n    uint256 private constant MAX_RATE = 10**6 * 10**DECIMALS;\n    // MAX_SUPPLY = MAX_INT256 / MAX_RATE\n    uint256 private constant MAX_SUPPLY = ~(uint256(1) << 255) / MAX_RATE;\n\n    // This module orchestrates the rebase execution and downstream notification.\n    address public orchestrator;\n\n    modifier onlyOrchestrator() {\n        require(msg.sender == orchestrator);\n        _;\n    }\n\n    /**\n     * @notice Initiates a new rebase operation, provided the minimum time period has elapsed.\n     *\n     * @dev The supply adjustment equals (_totalSupply * DeviationFromTargetRate) / rebaseLag\n     *      Where DeviationFromTargetRate is (MarketOracleRate - targetRate) / targetRate\n     *      and targetRate is CpiOracleRate / baseCpi\n     */\n    function rebase() external onlyOrchestrator {\n        require(inRebaseWindow());\n\n        // This comparison also ensures there is no reentrancy.\n        require(lastRebaseTimestampSec.add(minRebaseTimeIntervalSec) < now);\n\n        // Snap the rebase time to the start of this window.\n        lastRebaseTimestampSec = now.sub(\n            now.mod(minRebaseTimeIntervalSec)).add(rebaseWindowOffsetSec);\n\n        epoch = epoch.add(1);\n\n        uint256 cpi;\n        bool cpiValid;\n        (cpi, cpiValid) = cpiOracle.getData();\n        require(cpiValid);\n\n        uint256 targetRate = cpi.mul(10 ** DECIMALS).div(baseCpi);\n\n        uint256 exchangeRate;\n        bool rateValid;\n        (exchangeRate, rateValid) = marketOracle.getData();\n        require(rateValid);\n\n        if (exchangeRate > MAX_RATE) {\n            exchangeRate = MAX_RATE;\n        }\n\n        int256 supplyDelta = computeSupplyDelta(exchangeRate, targetRate);\n\n        // Apply the Dampening factor.\n        supplyDelta = supplyDelta.div(rebaseLag.toInt256Safe());\n\n        if (supplyDelta > 0 && uFrags.totalSupply().add(uint256(supplyDelta)) > MAX_SUPPLY) {\n            supplyDelta = (MAX_SUPPLY.sub(uFrags.totalSupply())).toInt256Safe();\n        }\n\n        uint256 supplyAfterRebase = uFrags.rebase(epoch, supplyDelta);\n        assert(supplyAfterRebase <= MAX_SUPPLY);\n        emit LogRebase(epoch, exchangeRate, cpi, supplyDelta, now);\n    }\n\n    /**\n     * @notice Sets the reference to the CPI oracle.\n     * @param cpiOracle_ The address of the cpi oracle contract.\n     */\n    function setCpiOracle(IOracle cpiOracle_)\n        external\n        onlyOwner\n    {\n        cpiOracle = cpiOracle_;\n    }\n\n    /**\n     * @notice Sets the reference to the market oracle.\n     * @param marketOracle_ The address of the market oracle contract.\n     */\n    function setMarketOracle(IOracle marketOracle_)\n        external\n        onlyOwner\n    {\n        marketOracle = marketOracle_;\n    }\n\n    /**\n     * @notice Sets the reference to the orchestrator.\n     * @param orchestrator_ The address of the orchestrator contract.\n     */\n    function setOrchestrator(address orchestrator_)\n        external\n        onlyOwner\n    {\n        orchestrator = orchestrator_;\n    }\n\n    /**\n     * @notice Sets the deviation threshold fraction. If the exchange rate given by the market\n     *         oracle is within this fractional distance from the targetRate, then no supply\n     *         modifications are made. DECIMALS fixed point number.\n     * @param deviationThreshold_ The new exchange rate threshold fraction.\n     */\n    function setDeviationThreshold(uint256 deviationThreshold_)\n        external\n        onlyOwner\n    {\n        deviationThreshold = deviationThreshold_;\n    }\n\n    /**\n     * @notice Sets the rebase lag parameter.\n               It is used to dampen the applied supply adjustment by 1 / rebaseLag\n               If the rebase lag R, equals 1, the smallest value for R, then the full supply\n               correction is applied on each rebase cycle.\n               If it is greater than 1, then a correction of 1/R of is applied on each rebase.\n     * @param rebaseLag_ The new rebase lag parameter.\n     */\n    function setRebaseLag(uint256 rebaseLag_)\n        external\n        onlyOwner\n    {\n        require(rebaseLag_ > 0);\n        rebaseLag = rebaseLag_;\n    }\n\n    /**\n     * @notice Sets the parameters which control the timing and frequency of\n     *         rebase operations.\n     *         a) the minimum time period that must elapse between rebase cycles.\n     *         b) the rebase window offset parameter.\n     *         c) the rebase window length parameter.\n     * @param minRebaseTimeIntervalSec_ More than this much time must pass between rebase\n     *        operations, in seconds.\n     * @param rebaseWindowOffsetSec_ The number of seconds from the beginning of\n              the rebase interval, where the rebase window begins.\n     * @param rebaseWindowLengthSec_ The length of the rebase window in seconds.\n     */\n    function setRebaseTimingParameters(\n        uint256 minRebaseTimeIntervalSec_,\n        uint256 rebaseWindowOffsetSec_,\n        uint256 rebaseWindowLengthSec_)\n        external\n        onlyOwner\n    {\n        require(minRebaseTimeIntervalSec_ > 0);\n        require(rebaseWindowOffsetSec_ < minRebaseTimeIntervalSec_);\n\n        minRebaseTimeIntervalSec = minRebaseTimeIntervalSec_;\n        rebaseWindowOffsetSec = rebaseWindowOffsetSec_;\n        rebaseWindowLengthSec = rebaseWindowLengthSec_;\n    }\n\n    /**\n     * @dev ZOS upgradable contract initialization method.\n     *      It is called at the time of contract creation to invoke parent class initializers and\n     *      initialize the contract's state variables.\n     */\n    function initialize(address owner_, UFragments uFrags_, uint256 baseCpi_)\n        public\n        initializer\n    {\n        Ownable.initialize(owner_);\n\n        // deviationThreshold = 0.05e18 = 5e16\n        deviationThreshold = 5 * 10 ** (DECIMALS-2);\n\n        rebaseLag = 30;\n        minRebaseTimeIntervalSec = 1 days;\n        rebaseWindowOffsetSec = 72000;  // 8PM UTC\n        rebaseWindowLengthSec = 15 minutes;\n        lastRebaseTimestampSec = 0;\n        epoch = 0;\n\n        uFrags = uFrags_;\n        baseCpi = baseCpi_;\n    }\n\n    /**\n     * @return If the latest block timestamp is within the rebase time window it, returns true.\n     *         Otherwise, returns false.\n     */\n    function inRebaseWindow() public view returns (bool) {\n        return (\n            now.mod(minRebaseTimeIntervalSec) >= rebaseWindowOffsetSec &&\n            now.mod(minRebaseTimeIntervalSec) < (rebaseWindowOffsetSec.add(rebaseWindowLengthSec))\n        );\n    }\n\n    /**\n     * @return Computes the total supply adjustment in response to the exchange rate\n     *         and the targetRate.\n     */\n    function computeSupplyDelta(uint256 rate, uint256 targetRate)\n        private\n        view\n        returns (int256)\n    {\n        if (withinDeviationThreshold(rate, targetRate)) {\n            return 0;\n        }\n\n        // supplyDelta = totalSupply * (rate - targetRate) / targetRate\n        int256 targetRateSigned = targetRate.toInt256Safe();\n        return uFrags.totalSupply().toInt256Safe()\n            .mul(rate.toInt256Safe().sub(targetRateSigned))\n            .div(targetRateSigned);\n    }\n\n    /**\n     * @param rate The current exchange rate, an 18 decimal fixed point number.\n     * @param targetRate The target exchange rate, an 18 decimal fixed point number.\n     * @return If the rate is within the deviation threshold from the target rate, returns true.\n     *         Otherwise, returns false.\n     */\n    function withinDeviationThreshold(uint256 rate, uint256 targetRate)\n        private\n        view\n        returns (bool)\n    {\n        uint256 absoluteDeviationThreshold = targetRate.mul(deviationThreshold)\n            .div(10 ** DECIMALS);\n\n        return (rate >= targetRate && rate.sub(targetRate) < absoluteDeviationThreshold)\n            || (rate < targetRate && targetRate.sub(rate) < absoluteDeviationThreshold);\n    }\n}\n",
  "sourcePath": "/Users/present/code/digg-core/contracts/UFragmentsPolicy.sol",
  "compiler": {
    "name": "solc",
    "version": "0.4.24+commit.e67f0147.Emscripten.clang"
  },
  "schemaVersion": "2.0.1",
  "updatedAt": "2020-09-02T08:28:30.869Z"
}