{
  "contractName": "UInt256LibMock",
  "abi": [
    {
      "anonymous": false,
      "inputs": [
        {
          "indexed": false,
          "name": "instanceName",
          "type": "string"
        },
        {
          "indexed": false,
          "name": "functionName",
          "type": "string"
        },
        {
          "indexed": false,
          "name": "caller",
          "type": "address"
        }
      ],
      "name": "FunctionCalled",
      "type": "event"
    },
    {
      "anonymous": false,
      "inputs": [
        {
          "indexed": false,
          "name": "uintVals",
          "type": "uint256[]"
        },
        {
          "indexed": false,
          "name": "intVals",
          "type": "int256[]"
        }
      ],
      "name": "FunctionArguments",
      "type": "event"
    },
    {
      "anonymous": false,
      "inputs": [
        {
          "indexed": false,
          "name": "val",
          "type": "int256"
        }
      ],
      "name": "ReturnValueInt256",
      "type": "event"
    },
    {
      "anonymous": false,
      "inputs": [
        {
          "indexed": false,
          "name": "val",
          "type": "uint256"
        }
      ],
      "name": "ReturnValueUInt256",
      "type": "event"
    },
    {
      "constant": false,
      "inputs": [
        {
          "name": "a",
          "type": "uint256"
        }
      ],
      "name": "toInt256Safe",
      "outputs": [
        {
          "name": "",
          "type": "int256"
        }
      ],
      "payable": false,
      "stateMutability": "nonpayable",
      "type": "function"
    }
  ],
  "bytecode": "0x608060405234801561001057600080fd5b5061011b806100206000396000f300608060405260043610603f576000357c0100000000000000000000000000000000000000000000000000000000900463ffffffff168063e823b9bf146044575b600080fd5b348015604f57600080fd5b50606c600480360381019080803590602001909291905050506082565b6040518082815260200191505060405180910390f35b600080608c8360ce565b90507f367c8bdeb63495ddb5dc24118d234a147995c3f818097913ac006528fae549f0816040518082815260200191505060405180910390a180915050919050565b600060ff60019060020a0219821115151560e757600080fd5b8190509190505600a165627a7a72305820fa78bb0b89a6d752d682ba4a1bd502bce43a5c21f80786ec1ad25c27cda3d1940029",
  "source": "pragma solidity 0.4.24;\n\nimport \"./Mock.sol\";\nimport \"../lib/UInt256Lib.sol\";\n\n\ncontract UInt256LibMock is IMock {\n    function toInt256Safe(uint256 a)\n        external\n        returns (int256)\n    {\n        int256 result = UInt256Lib.toInt256Safe(a);\n        emit ReturnValueInt256(result);\n        return result;\n    }\n}\n",
  "sourcePath": "/Users/present/code/digg-core/contracts/mocks/UInt256LibMock.sol",
  "compiler": {
    "name": "solc",
    "version": "0.4.24+commit.e67f0147.Emscripten.clang"
  },
  "schemaVersion": "2.0.1",
  "updatedAt": "2020-09-02T08:23:18.889Z"
}